{
  "transactions": [
    {
      "hash": "0x0518113fbaf863709499a17821cb53df455366ec77fd926d65394401083e3669",
      "transactionType": "CALL",
      "contractName": "L1Resolver",
      "contractAddress": "0x0a702b2475878628ff6a9a4be5e18e6db9b74ed3",
      "function": "setUrl(string)",
      "arguments": [
        "\"https://api-entry-gateway-development.cbhq.net/api/v1/domain/resolver/resolveDomain/{sender}/{data}\""
      ],
      "transaction": {
        "from": "0x869140c91edf43214a3ecedeaf777cc7107ad71a",
        "to": "0x0a702b2475878628ff6a9a4be5e18e6db9b74ed3",
        "gas": "0x11553",
        "value": "0x0",
        "input": "0x252498a20000000000000000000000000000000000000000000000000000000000000020000000000000000000000000000000000000000000000000000000000000006368747470733a2f2f6170692d656e7472792d676174657761792d646576656c6f706d656e742e636268712e6e65742f6170692f76312f646f6d61696e2f7265736f6c7665722f7265736f6c7665446f6d61696e2f7b73656e6465727d2f7b646174617d0000000000000000000000000000000000000000000000000000000000",
        "nonce": "0x4",
        "chainId": "0xaa36a7"
      },
      "additionalContracts": [],
      "isFixedGasLimit": false
    }
  ],
  "receipts": [
    {
      "status": "0x1",
      "cumulativeGasUsed": "0xe03a35",
      "logs": [
        {
          "address": "0x0a702b2475878628ff6a9a4be5e18e6db9b74ed3",
          "topics": [
            "0x2c79c64e8bbe05b31bc2d6bacc4b8aece533e968d1596c82949b0f6bb2ac00f0"
          ],
          "data": "0x0000000000000000000000000000000000000000000000000000000000000020000000000000000000000000000000000000000000000000000000000000006368747470733a2f2f6170692d656e7472792d676174657761792d646576656c6f706d656e742e636268712e6e65742f6170692f76312f646f6d61696e2f7265736f6c7665722f7265736f6c7665446f6d61696e2f7b73656e6465727d2f7b646174617d0000000000000000000000000000000000000000000000000000000000",
          "blockHash": "0x5d30926adec1b28894e5f76c82413bcc01290aae8bc87a0568802017150820ca",
          "blockNumber": "0x5d3478",
          "transactionHash": "0x0518113fbaf863709499a17821cb53df455366ec77fd926d65394401083e3669",
          "transactionIndex": "0x9e",
          "logIndex": "0xa3",
          "removed": false
        }
      ],
      "logsBloom": "0x00000000000000000000000000000000000000000000000000000000000000000000000000000000000000000000000000000000000000000000000000000000000000000000008000000000000000000000000040000000002000000000000000000040000000200000000000000000000000000000000000000000000000000000000000000000000000000000000000000000000000000000000000000000000000000000000000000000000000000000000000000000000000000000000000000000000000000000000000000000000000000000000000000000004000000000000000000000000000000000000000000000000000000000000000000000",
      "type": "0x2",
      "transactionHash": "0x0518113fbaf863709499a17821cb53df455366ec77fd926d65394401083e3669",
      "transactionIndex": "0x9e",
      "blockHash": "0x5d30926adec1b28894e5f76c82413bcc01290aae8bc87a0568802017150820ca",
      "blockNumber": "0x5d3478",
      "gasUsed": "0xc8c8",
      "effectiveGasPrice": "0x361f9e7",
      "from": "0x869140c91edf43214a3ecedeaf777cc7107ad71a",
      "to": "0x0a702b2475878628ff6a9a4be5e18e6db9b74ed3",
      "contractAddress": null
    }
  ],
  "libraries": [],
  "pending": [],
  "returns": {},
  "timestamp": 1718395347,
  "chain": 11155111,
  "commit": "54057e5"
}