{
  "transactions": [
    {
      "hash": "0x0f35c4cef79a422c5748f4d6204b8a17ec029a043bc68c5e9c6dbe5b42014c65",
      "transactionType": "CALL",
      "contractName": "L1Resolver",
      "contractAddress": "0x0a702b2475878628ff6a9a4be5e18e6db9b74ed3",
      "function": "setUrl(string)",
      "arguments": [
        "\"https://api.coinbase.com/api/v1/domain/resolver/resolveDomain/{sender}/{data}\""
      ],
      "transaction": {
        "from": "0x869140c91edf43214a3ecedeaf777cc7107ad71a",
        "to": "0x0a702b2475878628ff6a9a4be5e18e6db9b74ed3",
        "gas": "0x106d0",
        "value": "0x0",
        "input": "0x252498a20000000000000000000000000000000000000000000000000000000000000020000000000000000000000000000000000000000000000000000000000000004d68747470733a2f2f6170692e636f696e626173652e636f6d2f6170692f76312f646f6d61696e2f7265736f6c7665722f7265736f6c7665446f6d61696e2f7b73656e6465727d2f7b646174617d00000000000000000000000000000000000000",
        "nonce": "0x5",
        "chainId": "0xaa36a7"
      },
      "additionalContracts": [],
      "isFixedGasLimit": false
    }
  ],
  "receipts": [
    {
      "status": "0x1",
      "cumulativeGasUsed": "0x64cdc5",
      "logs": [
        {
          "address": "0x0a702b2475878628ff6a9a4be5e18e6db9b74ed3",
          "topics": [
            "0x2c79c64e8bbe05b31bc2d6bacc4b8aece533e968d1596c82949b0f6bb2ac00f0"
          ],
          "data": "0x0000000000000000000000000000000000000000000000000000000000000020000000000000000000000000000000000000000000000000000000000000004d68747470733a2f2f6170692e636f696e626173652e636f6d2f6170692f76312f646f6d61696e2f7265736f6c7665722f7265736f6c7665446f6d61696e2f7b73656e6465727d2f7b646174617d00000000000000000000000000000000000000",
          "blockHash": "0x3fd841385e544fbd1d1ac3c8fc6f423cff79ebc0b7359cd2ac9bfe03c5c40def",
          "blockNumber": "0x5da2c8",
          "transactionHash": "0x0f35c4cef79a422c5748f4d6204b8a17ec029a043bc68c5e9c6dbe5b42014c65",
          "transactionIndex": "0x25",
          "logIndex": "0x2f",
          "removed": false
        }
      ],
      "logsBloom": "0x00000000000000000000000000000000000000000000000000000000000000000000000000000000000000000000000000000000000000000000000000000000000000000000008000000000000000000000000040000000002000000000000000000040000000200000000000000000000000000000000000000000000000000000000000000000000000000000000000000000000000000000000000000000000000000000000000000000000000000000000000000000000000000000000000000000000000000000000000000000000000000000000000000000004000000000000000000000000000000000000000000000000000000000000000000000",
      "type": "0x2",
      "transactionHash": "0x0f35c4cef79a422c5748f4d6204b8a17ec029a043bc68c5e9c6dbe5b42014c65",
      "transactionIndex": "0x25",
      "blockHash": "0x3fd841385e544fbd1d1ac3c8fc6f423cff79ebc0b7359cd2ac9bfe03c5c40def",
      "blockNumber": "0x5da2c8",
      "gasUsed": "0xbe46",
      "effectiveGasPrice": "0x3b9d890b",
      "from": "0x869140c91edf43214a3ecedeaf777cc7107ad71a",
      "to": "0x0a702b2475878628ff6a9a4be5e18e6db9b74ed3",
      "contractAddress": null
    }
  ],
  "libraries": [],
  "pending": [],
  "returns": {},
  "timestamp": 1718750100,
  "chain": 11155111,
  "commit": "082ed1b"
}