{
  "transactions": [
    {
      "hash": "0x8a876691e2eb6a7f57f283d025d91818dbe708731462b5e074d73762e7fe7fd1",
      "transactionType": "CALL",
      "contractName": null,
      "contractAddress": "0x1079ef978d3c2a6cd4db142118d3c904e0ac4fc7",
      "function": "setRoot(bytes32)",
      "arguments": [
        "0x8cbc28e840d1cd2accddec6592a4bffce2ca38c6c559c252504f342dd46acbb6"
      ],
      "transaction": {
        "from": "0x63e216601b3588a5b54d9f961cffc4af916a63c7",
        "to": "0x1079ef978d3c2a6cd4db142118d3c904e0ac4fc7",
        "gas": "0x9cab",
        "value": "0x0",
        "input": "0xdab5f3408cbc28e840d1cd2accddec6592a4bffce2ca38c6c559c252504f342dd46acbb6",
        "nonce": "0x9",
        "chainId": "0x14a34"
      },
      "additionalContracts": [],
      "isFixedGasLimit": false
    }
  ],
  "receipts": [
    {
      "status": "0x1",
      "cumulativeGasUsed": "0x18839b",
      "logs": [],
      "logsBloom": "0x00000000000000000000000000000000000000000000000000000000000000000000000000000000000000000000000000000000000000000000000000000000000000000000000000000000000000000000000000000000000000000000000000000000000000000000000000000000000000000000000000000000000000000000000000000000000000000000000000000000000000000000000000000000000000000000000000000000000000000000000000000000000000000000000000000000000000000000000000000000000000000000000000000000000000000000000000000000000000000000000000000000000000000000000000000000",
      "type": "0x2",
      "transactionHash": "0x8a876691e2eb6a7f57f283d025d91818dbe708731462b5e074d73762e7fe7fd1",
      "transactionIndex": "0x8",
      "blockHash": "0x4e341cd72456eff751f71943c6466a796e04fef5acc71b889bc5f896c0d29081",
      "blockNumber": "0xb49e3a",
      "gasUsed": "0x716e",
      "effectiveGasPrice": "0x1692c2",
      "from": "0x63e216601b3588a5b54d9f961cffc4af916a63c7",
      "to": "0x1079ef978d3c2a6cd4db142118d3c904e0ac4fc7",
      "contractAddress": null,
      "l1BaseFeeScalar": "0x44d",
      "l1BlobBaseFee": "0x1",
      "l1BlobBaseFeeScalar": "0xa118b",
      "l1Fee": "0x6e70bac6",
      "l1GasPrice": "0x3eb175bd",
      "l1GasUsed": "0x640"
    }
  ],
  "libraries": [],
  "pending": [],
  "returns": {},
  "timestamp": 1719442265,
  "chain": 84532,
  "commit": "fbad20c"
}