{
  "transactions": [
    {
      "hash": "0x5a0c5902ff67439447f8fe090190e3168a264d19a6b6dcc51dfa2641cacf1384",
      "transactionType": "CALL",
      "contractName": null,
      "contractAddress": "0xBD69dd64b94fe7435157F4851e4b4Aa3A0988c90",
      "function": "setSubnodeRecord(bytes32,bytes32,address,address,uint64)",
      "arguments": [
        "0xff1e3c0eb00ec714e34b6114125fbde1dea2f24a72fbf672e7b7fd5690328e10",
        "0x507d811a677d5cc2739b672d0367e09898d4c562e310fe5f02eb973c5a1955fe",
        "0x869140c91eDF43214a3EcEdEAF777cc7107aD71a",
        "0xd9d7B7C7f89985e9abAfCa5Bc1211BA5d7C49d33",
        "18446744073709551615"
      ],
      "transaction": {
        "type": "0x02",
        "from": "0x869140c91edf43214a3ecedeaf777cc7107ad71a",
        "to": "0xbd69dd64b94fe7435157f4851e4b4aa3a0988c90",
        "gas": "0x1b2e0",
        "value": "0x0",
        "data": "0x5ef2c7f0ff1e3c0eb00ec714e34b6114125fbde1dea2f24a72fbf672e7b7fd5690328e10507d811a677d5cc2739b672d0367e09898d4c562e310fe5f02eb973c5a1955fe000000000000000000000000869140c91edf43214a3ecedeaf777cc7107ad71a000000000000000000000000d9d7b7c7f89985e9abafca5bc1211ba5d7c49d33000000000000000000000000000000000000000000000000ffffffffffffffff",
        "nonce": "0xa",
        "accessList": []
      },
      "additionalContracts": [],
      "isFixedGasLimit": false
    },
    {
      "hash": "0xd9a8e2578099e10b02c524a64bd793afa4dc6b216cb713ace241474ede37c8cb",
      "transactionType": "CALL",
      "contractName": null,
      "contractAddress": "0xd9d7B7C7f89985e9abAfCa5Bc1211BA5d7C49d33",
      "function": "setAddr(bytes32,address)",
      "arguments": [
        "0x469ca18438bc87f5ba35ce95d52fefcce2bf6686e6bf155ceec8e8593cad6bdd",
        "0xB18e4C959bccc8EF86D78DC297fb5efA99550d85"
      ],
      "transaction": {
        "type": "0x02",
        "from": "0x869140c91edf43214a3ecedeaf777cc7107ad71a",
        "to": "0xd9d7b7c7f89985e9abafca5bc1211ba5d7c49d33",
        "gas": "0x11737",
        "value": "0x0",
        "data": "0xd5fa2b00469ca18438bc87f5ba35ce95d52fefcce2bf6686e6bf155ceec8e8593cad6bdd000000000000000000000000b18e4c959bccc8ef86d78dc297fb5efa99550d85",
        "nonce": "0xb",
        "accessList": []
      },
      "additionalContracts": [],
      "isFixedGasLimit": false
    }
  ],
  "receipts": [
    {
      "transactionHash": "0x5a0c5902ff67439447f8fe090190e3168a264d19a6b6dcc51dfa2641cacf1384",
      "transactionIndex": "0x1",
      "blockHash": "0x5a7e837faf7d679b3ab8657914b545824c09b926adb248e9dddec576a621d531",
      "blockNumber": "0x9451d4",
      "from": "0x869140c91eDF43214a3EcEdEAF777cc7107aD71a",
      "to": "0xBD69dd64b94fe7435157F4851e4b4Aa3A0988c90",
      "cumulativeGasUsed": "0x1d4b1",
      "gasUsed": "0x1295a",
      "contractAddress": null,
      "logs": [
        {
          "address": "0xBD69dd64b94fe7435157F4851e4b4Aa3A0988c90",
          "topics": [
            "0xce0457fe73731f824cc272376169235128c118b49d344817417c6d108d155e82",
            "0xff1e3c0eb00ec714e34b6114125fbde1dea2f24a72fbf672e7b7fd5690328e10",
            "0x507d811a677d5cc2739b672d0367e09898d4c562e310fe5f02eb973c5a1955fe"
          ],
          "data": "0x000000000000000000000000869140c91edf43214a3ecedeaf777cc7107ad71a",
          "blockHash": "0x5a7e837faf7d679b3ab8657914b545824c09b926adb248e9dddec576a621d531",
          "blockNumber": "0x9451d4",
          "transactionHash": "0x5a0c5902ff67439447f8fe090190e3168a264d19a6b6dcc51dfa2641cacf1384",
          "transactionIndex": "0x1",
          "logIndex": "0x0",
          "removed": false
        },
        {
          "address": "0xBD69dd64b94fe7435157F4851e4b4Aa3A0988c90",
          "topics": [
            "0x335721b01866dc23fbee8b6b2c7b1e14d6f05c28cd35a2c934239f94095602a0",
            "0x469ca18438bc87f5ba35ce95d52fefcce2bf6686e6bf155ceec8e8593cad6bdd"
          ],
          "data": "0x000000000000000000000000d9d7b7c7f89985e9abafca5bc1211ba5d7c49d33",
          "blockHash": "0x5a7e837faf7d679b3ab8657914b545824c09b926adb248e9dddec576a621d531",
          "blockNumber": "0x9451d4",
          "transactionHash": "0x5a0c5902ff67439447f8fe090190e3168a264d19a6b6dcc51dfa2641cacf1384",
          "transactionIndex": "0x1",
          "logIndex": "0x1",
          "removed": false
        },
        {
          "address": "0xBD69dd64b94fe7435157F4851e4b4Aa3A0988c90",
          "topics": [
            "0x1d4f9bbfc9cab89d66e1a1562f2233ccbf1308cb4f63de2ead5787adddb8fa68",
            "0x469ca18438bc87f5ba35ce95d52fefcce2bf6686e6bf155ceec8e8593cad6bdd"
          ],
          "data": "0x000000000000000000000000000000000000000000000000ffffffffffffffff",
          "blockHash": "0x5a7e837faf7d679b3ab8657914b545824c09b926adb248e9dddec576a621d531",
          "blockNumber": "0x9451d4",
          "transactionHash": "0x5a0c5902ff67439447f8fe090190e3168a264d19a6b6dcc51dfa2641cacf1384",
          "transactionIndex": "0x1",
          "logIndex": "0x2",
          "removed": false
        }
      ],
      "status": "0x1",
      "logsBloom": "0x00000000000000000000000000000000000000000000000000000000000000100000000000000000000000000000000000000080000010000000000000020000001000000000004040000000000000000100000000010000000000000000000000000000000000000000000000000020000000001000000000000000000000008000000000000000000000000000000000000000000000200000040080000000000000000000000010000000000000000004000000000000000000040000000000000000000000000000000000004000000000000000040000000000000000000000000000000000000000000000000000000000000000000000000002000000",
      "type": "0x2",
      "effectiveGasPrice": "0xb2d05efe"
    },
    {
      "transactionHash": "0xd9a8e2578099e10b02c524a64bd793afa4dc6b216cb713ace241474ede37c8cb",
      "transactionIndex": "0x2",
      "blockHash": "0x5a7e837faf7d679b3ab8657914b545824c09b926adb248e9dddec576a621d531",
      "blockNumber": "0x9451d4",
      "from": "0x869140c91eDF43214a3EcEdEAF777cc7107aD71a",
      "to": "0xd9d7B7C7f89985e9abAfCa5Bc1211BA5d7C49d33",
      "cumulativeGasUsed": "0x29ed7",
      "gasUsed": "0xca26",
      "contractAddress": null,
      "logs": [
        {
          "address": "0xd9d7B7C7f89985e9abAfCa5Bc1211BA5d7C49d33",
          "topics": [
            "0x65412581168e88a1e60c6459d7f44ae83ad0832e670826c05a4e2476b57af752",
            "0x469ca18438bc87f5ba35ce95d52fefcce2bf6686e6bf155ceec8e8593cad6bdd"
          ],
          "data": "0x000000000000000000000000000000000000000000000000000000000000003c00000000000000000000000000000000000000000000000000000000000000400000000000000000000000000000000000000000000000000000000000000014b18e4c959bccc8ef86d78dc297fb5efa99550d85000000000000000000000000",
          "blockHash": "0x5a7e837faf7d679b3ab8657914b545824c09b926adb248e9dddec576a621d531",
          "blockNumber": "0x9451d4",
          "transactionHash": "0xd9a8e2578099e10b02c524a64bd793afa4dc6b216cb713ace241474ede37c8cb",
          "transactionIndex": "0x2",
          "logIndex": "0x3",
          "removed": false
        },
        {
          "address": "0xd9d7B7C7f89985e9abAfCa5Bc1211BA5d7C49d33",
          "topics": [
            "0x52d7d861f09ab3d26239d492e8968629f95e9e318cf0b73bfddc441522a15fd2",
            "0x469ca18438bc87f5ba35ce95d52fefcce2bf6686e6bf155ceec8e8593cad6bdd"
          ],
          "data": "0x000000000000000000000000b18e4c959bccc8ef86d78dc297fb5efa99550d85",
          "blockHash": "0x5a7e837faf7d679b3ab8657914b545824c09b926adb248e9dddec576a621d531",
          "blockNumber": "0x9451d4",
          "transactionHash": "0xd9a8e2578099e10b02c524a64bd793afa4dc6b216cb713ace241474ede37c8cb",
          "transactionIndex": "0x2",
          "logIndex": "0x4",
          "removed": false
        }
      ],
      "status": "0x1",
      "logsBloom": "0x00000000000000000000000000000110000000000000000000000000100000000000000000000000000000000000000000000000000000000000000000000000001000000000000000000000000000000000000004010000000000000000000000000000000000000000000000000020000000000000000000000000000000000000000000000000000000000000000000000000000000000000000000000000000000000002000008000000040000000000000000000000000000000000000000000000000000000000000000000000000000008000000000000000000000800000000000000000000000000000000000000000000000000000000000000000",
      "type": "0x2",
      "effectiveGasPrice": "0xb2d05efe"
    }
  ],
  "libraries": [],
  "pending": [],
  "returns": {},
  "timestamp": 1715208844,
  "chain": 84532,
  "commit": "77d964e"
}