{
  "transactions": [
    {
      "hash": "0xd85c542dbb66917a406531e05a1c4d866db513feafdfd61194a74762da79aabd",
      "transactionType": "CALL",
      "contractName": null,
      "contractAddress": "0xBD69dd64b94fe7435157F4851e4b4Aa3A0988c90",
      "function": "setSubnodeRecord(bytes32,bytes32,address,address,uint64)",
      "arguments": [
        "0xff1e3c0eb00ec714e34b6114125fbde1dea2f24a72fbf672e7b7fd5690328e10",
        "0x9c22ff5f21f0b81b113e63f7db6da94fedef11b2119b4088b89664fb9a3cb658",
        "0x869140c91eDF43214a3EcEdEAF777cc7107aD71a",
        "0xd9d7B7C7f89985e9abAfCa5Bc1211BA5d7C49d33",
        "18446744073709551615"
      ],
      "transaction": {
        "type": "0x02",
        "from": "0x869140c91edf43214a3ecedeaf777cc7107ad71a",
        "to": "0xbd69dd64b94fe7435157f4851e4b4aa3a0988c90",
        "gas": "0x1b2e0",
        "value": "0x0",
        "data": "0x5ef2c7f0ff1e3c0eb00ec714e34b6114125fbde1dea2f24a72fbf672e7b7fd5690328e109c22ff5f21f0b81b113e63f7db6da94fedef11b2119b4088b89664fb9a3cb658000000000000000000000000869140c91edf43214a3ecedeaf777cc7107ad71a000000000000000000000000d9d7b7c7f89985e9abafca5bc1211ba5d7c49d33000000000000000000000000000000000000000000000000ffffffffffffffff",
        "nonce": "0x8",
        "accessList": []
      },
      "additionalContracts": [],
      "isFixedGasLimit": false
    },
    {
      "hash": "0xda04aa1414c90ab35ce850da7b644ed61b48943df08707154b3dc10f5b088ce7",
      "transactionType": "CALL",
      "contractName": null,
      "contractAddress": "0xd9d7B7C7f89985e9abAfCa5Bc1211BA5d7C49d33",
      "function": "setAddr(bytes32,address)",
      "arguments": [
        "0x41399f6a33e39859f6671a8182a7aed25e02862ce8d5a54ec9c4b018800ddaca",
        "0x869140c91eDF43214a3EcEdEAF777cc7107aD71a"
      ],
      "transaction": {
        "type": "0x02",
        "from": "0x869140c91edf43214a3ecedeaf777cc7107ad71a",
        "to": "0xd9d7b7c7f89985e9abafca5bc1211ba5d7c49d33",
        "gas": "0x11737",
        "value": "0x0",
        "data": "0xd5fa2b0041399f6a33e39859f6671a8182a7aed25e02862ce8d5a54ec9c4b018800ddaca000000000000000000000000869140c91edf43214a3ecedeaf777cc7107ad71a",
        "nonce": "0x9",
        "accessList": []
      },
      "additionalContracts": [],
      "isFixedGasLimit": false
    }
  ],
  "receipts": [
    {
      "transactionHash": "0xd85c542dbb66917a406531e05a1c4d866db513feafdfd61194a74762da79aabd",
      "transactionIndex": "0x1",
      "blockHash": "0x674c098549e06bf2c1892127708d9a2055d7e8faad7c669bb24a52fa46de5be6",
      "blockNumber": "0x944d49",
      "from": "0x869140c91eDF43214a3EcEdEAF777cc7107aD71a",
      "to": "0xBD69dd64b94fe7435157F4851e4b4Aa3A0988c90",
      "cumulativeGasUsed": "0x2007d",
      "gasUsed": "0x1295a",
      "contractAddress": null,
      "logs": [
        {
          "address": "0xBD69dd64b94fe7435157F4851e4b4Aa3A0988c90",
          "topics": [
            "0xce0457fe73731f824cc272376169235128c118b49d344817417c6d108d155e82",
            "0xff1e3c0eb00ec714e34b6114125fbde1dea2f24a72fbf672e7b7fd5690328e10",
            "0x9c22ff5f21f0b81b113e63f7db6da94fedef11b2119b4088b89664fb9a3cb658"
          ],
          "data": "0x000000000000000000000000869140c91edf43214a3ecedeaf777cc7107ad71a",
          "blockHash": "0x674c098549e06bf2c1892127708d9a2055d7e8faad7c669bb24a52fa46de5be6",
          "blockNumber": "0x944d49",
          "transactionHash": "0xd85c542dbb66917a406531e05a1c4d866db513feafdfd61194a74762da79aabd",
          "transactionIndex": "0x1",
          "logIndex": "0x0",
          "removed": false
        },
        {
          "address": "0xBD69dd64b94fe7435157F4851e4b4Aa3A0988c90",
          "topics": [
            "0x335721b01866dc23fbee8b6b2c7b1e14d6f05c28cd35a2c934239f94095602a0",
            "0x41399f6a33e39859f6671a8182a7aed25e02862ce8d5a54ec9c4b018800ddaca"
          ],
          "data": "0x000000000000000000000000d9d7b7c7f89985e9abafca5bc1211ba5d7c49d33",
          "blockHash": "0x674c098549e06bf2c1892127708d9a2055d7e8faad7c669bb24a52fa46de5be6",
          "blockNumber": "0x944d49",
          "transactionHash": "0xd85c542dbb66917a406531e05a1c4d866db513feafdfd61194a74762da79aabd",
          "transactionIndex": "0x1",
          "logIndex": "0x1",
          "removed": false
        },
        {
          "address": "0xBD69dd64b94fe7435157F4851e4b4Aa3A0988c90",
          "topics": [
            "0x1d4f9bbfc9cab89d66e1a1562f2233ccbf1308cb4f63de2ead5787adddb8fa68",
            "0x41399f6a33e39859f6671a8182a7aed25e02862ce8d5a54ec9c4b018800ddaca"
          ],
          "data": "0x000000000000000000000000000000000000000000000000ffffffffffffffff",
          "blockHash": "0x674c098549e06bf2c1892127708d9a2055d7e8faad7c669bb24a52fa46de5be6",
          "blockNumber": "0x944d49",
          "transactionHash": "0xd85c542dbb66917a406531e05a1c4d866db513feafdfd61194a74762da79aabd",
          "transactionIndex": "0x1",
          "logIndex": "0x2",
          "removed": false
        }
      ],
      "status": "0x1",
      "logsBloom": "0x00000000000000000000000000000000000000000000000000000000000000000000000000000000000000000000000000000080000010000000000000020000000000000000000040000000000000000100000000000000000000000000000000000000000000000000000000000000000000001000000000000080000000008000000000000000000000000000000000000000008000200000040000000000000000000001000010000000000000000004000000000000000000040000000000000000000000000000000000004000000000000000040000000000000000000000000000000000000000000080000000000000200000000000000002000000",
      "type": "0x2",
      "effectiveGasPrice": "0xb2d05f1e"
    },
    {
      "transactionHash": "0xda04aa1414c90ab35ce850da7b644ed61b48943df08707154b3dc10f5b088ce7",
      "transactionIndex": "0x2",
      "blockHash": "0x674c098549e06bf2c1892127708d9a2055d7e8faad7c669bb24a52fa46de5be6",
      "blockNumber": "0x944d49",
      "from": "0x869140c91eDF43214a3EcEdEAF777cc7107aD71a",
      "to": "0xd9d7B7C7f89985e9abAfCa5Bc1211BA5d7C49d33",
      "cumulativeGasUsed": "0x2caa3",
      "gasUsed": "0xca26",
      "contractAddress": null,
      "logs": [
        {
          "address": "0xd9d7B7C7f89985e9abAfCa5Bc1211BA5d7C49d33",
          "topics": [
            "0x65412581168e88a1e60c6459d7f44ae83ad0832e670826c05a4e2476b57af752",
            "0x41399f6a33e39859f6671a8182a7aed25e02862ce8d5a54ec9c4b018800ddaca"
          ],
          "data": "0x000000000000000000000000000000000000000000000000000000000000003c00000000000000000000000000000000000000000000000000000000000000400000000000000000000000000000000000000000000000000000000000000014869140c91edf43214a3ecedeaf777cc7107ad71a000000000000000000000000",
          "blockHash": "0x674c098549e06bf2c1892127708d9a2055d7e8faad7c669bb24a52fa46de5be6",
          "blockNumber": "0x944d49",
          "transactionHash": "0xda04aa1414c90ab35ce850da7b644ed61b48943df08707154b3dc10f5b088ce7",
          "transactionIndex": "0x2",
          "logIndex": "0x3",
          "removed": false
        },
        {
          "address": "0xd9d7B7C7f89985e9abAfCa5Bc1211BA5d7C49d33",
          "topics": [
            "0x52d7d861f09ab3d26239d492e8968629f95e9e318cf0b73bfddc441522a15fd2",
            "0x41399f6a33e39859f6671a8182a7aed25e02862ce8d5a54ec9c4b018800ddaca"
          ],
          "data": "0x000000000000000000000000869140c91edf43214a3ecedeaf777cc7107ad71a",
          "blockHash": "0x674c098549e06bf2c1892127708d9a2055d7e8faad7c669bb24a52fa46de5be6",
          "blockNumber": "0x944d49",
          "transactionHash": "0xda04aa1414c90ab35ce850da7b644ed61b48943df08707154b3dc10f5b088ce7",
          "transactionIndex": "0x2",
          "logIndex": "0x4",
          "removed": false
        }
      ],
      "status": "0x1",
      "logsBloom": "0x00000000000000000000000000000110000000000000000000000000100000000000000000000000000000000000000000000000000000000000000000000000000000000000000000000000000000000000000004000000000000000000000000000000000000000000000000000000000000000000000000000080000000008000000000000000000000000000000000000000008000000000000000000000000000000002000008000000040000000000000000000000000000000000000000000000000000000000000000000000000000008000000000000000000000800000000000000000000000000000000000000000000000000000000000000000",
      "type": "0x2",
      "effectiveGasPrice": "0xb2d05f1e"
    }
  ],
  "libraries": [],
  "pending": [],
  "returns": {},
  "timestamp": 1715206520,
  "chain": 84532,
  "commit": "a77faa2"
}