{
  "transactions": [
    {
      "hash": "0x7321cc2a973941e8e37b16ec21e9cee859693b56bd4a9be79cd32c9c6a594b00",
      "transactionType": "CALL",
      "contractName": null,
      "contractAddress": "0x16ee2051a0613e5c52127755ee3110cf4cd1ca10",
      "function": "setDiscountDetails((bool,address,bytes32,uint256))",
      "arguments": [
        "(true, 0xE41Cd25f429E10744938d5048646E721ac630aF3, 0xd4646f3b2fdadad0dd27a88c2d0928fe85a9d2885e03264de51f79eacb0568e8, 1000000000000000)"
      ],
      "transaction": {
        "from": "0x869140c91edf43214a3ecedeaf777cc7107ad71a",
        "to": "0x16ee2051a0613e5c52127755ee3110cf4cd1ca10",
        "gas": "0x4eccc",
        "value": "0x0",
        "input": "0x682baa900000000000000000000000000000000000000000000000000000000000000001000000000000000000000000e41cd25f429e10744938d5048646e721ac630af3d4646f3b2fdadad0dd27a88c2d0928fe85a9d2885e03264de51f79eacb0568e800000000000000000000000000000000000000000000000000038d7ea4c68000",
        "nonce": "0x4a",
        "chainId": "0x14a34"
      },
      "additionalContracts": [],
      "isFixedGasLimit": false
    }
  ],
  "receipts": [
    {
      "status": "0x1",
      "cumulativeGasUsed": "0x3163e6",
      "logs": [
        {
          "address": "0x16ee2051a0613e5c52127755ee3110cf4cd1ca10",
          "topics": [
            "0x8e8593a48f626f59b50ae7022bc900a089280e27a89c5d7c1a4ca9a4338b47d1",
            "0xd4646f3b2fdadad0dd27a88c2d0928fe85a9d2885e03264de51f79eacb0568e8"
          ],
          "data": "0x0000000000000000000000000000000000000000000000000000000000000001000000000000000000000000e41cd25f429e10744938d5048646e721ac630af3d4646f3b2fdadad0dd27a88c2d0928fe85a9d2885e03264de51f79eacb0568e800000000000000000000000000000000000000000000000000038d7ea4c68000",
          "blockHash": "0x0f725907ab3c528cde72707054733e4f92a75044adbfd59b19efe4a8acaa0e9a",
          "blockNumber": "0xb400ae",
          "transactionHash": "0x7321cc2a973941e8e37b16ec21e9cee859693b56bd4a9be79cd32c9c6a594b00",
          "transactionIndex": "0x23",
          "logIndex": "0x1f",
          "removed": false
        }
      ],
      "logsBloom": "0x00000000000000000000000000000000000000000000000000000000400000000000000000000000800000000000000000000000000000000000000000000000000002000000000000000000000040000000000000000000100800000000000000000000000000000000000000000000000000000000000000000000000000000000000000004000000000000000000000000000000000000000000000000000000000000000000000000000000000000000008000000000000000000000000000000000000000000000000000000000000000000000000000000000000000000000000000000000000000000000000200000000000000000000000000000000",
      "type": "0x2",
      "transactionHash": "0x7321cc2a973941e8e37b16ec21e9cee859693b56bd4a9be79cd32c9c6a594b00",
      "transactionIndex": "0x23",
      "blockHash": "0x0f725907ab3c528cde72707054733e4f92a75044adbfd59b19efe4a8acaa0e9a",
      "blockNumber": "0xb400ae",
      "gasUsed": "0x390cc",
      "effectiveGasPrice": "0xf434a",
      "from": "0x869140c91edf43214a3ecedeaf777cc7107ad71a",
      "to": "0x16ee2051a0613e5c52127755ee3110cf4cd1ca10",
      "contractAddress": null,
      "l1BaseFeeScalar": "0x44d",
      "l1BlobBaseFee": "0x1",
      "l1BlobBaseFeeScalar": "0xa118b",
      "l1Fee": "0x152fb4891",
      "l1GasPrice": "0x9d76ae44",
      "l1GasUsed": "0x7a3"
    }
  ],
  "libraries": [],
  "pending": [],
  "returns": {},
  "timestamp": 1719361602,
  "chain": 84532,
  "commit": "4db9e6f"
}