{
  "transactions": [
    {
      "hash": "0x4ad32ad0ddbc40113158fb4ea5fe7d28a945415bd1a72b64a6c83e964abcf537",
      "transactionType": "CALL",
      "contractName": null,
      "contractAddress": "0x16ee2051a0613e5c52127755ee3110cf4cd1ca10",
      "function": "setDiscountDetails((bool,address,bytes32,uint256))",
      "arguments": [
        "(true, 0x87B6Bb5d4F43f7bfF78fcFAE7227B2d918828a92, 0xd7c738185b4a87cdddfb28485e22953d41e0ddf37717ab565e502bb56354e157, 1000000000000000)"
      ],
      "transaction": {
        "from": "0x869140c91edf43214a3ecedeaf777cc7107ad71a",
        "to": "0x16ee2051a0613e5c52127755ee3110cf4cd1ca10",
        "gas": "0xedfc",
        "value": "0x0",
        "input": "0x682baa90000000000000000000000000000000000000000000000000000000000000000100000000000000000000000087b6bb5d4f43f7bff78fcfae7227b2d918828a92d7c738185b4a87cdddfb28485e22953d41e0ddf37717ab565e502bb56354e15700000000000000000000000000000000000000000000000000038d7ea4c68000",
        "nonce": "0x4b",
        "chainId": "0x14a34"
      },
      "additionalContracts": [],
      "isFixedGasLimit": false
    }
  ],
  "receipts": [
    {
      "status": "0x1",
      "cumulativeGasUsed": "0xeb66e",
      "logs": [
        {
          "address": "0x16ee2051a0613e5c52127755ee3110cf4cd1ca10",
          "topics": [
            "0x8e8593a48f626f59b50ae7022bc900a089280e27a89c5d7c1a4ca9a4338b47d1",
            "0xd7c738185b4a87cdddfb28485e22953d41e0ddf37717ab565e502bb56354e157"
          ],
          "data": "0x000000000000000000000000000000000000000000000000000000000000000100000000000000000000000087b6bb5d4f43f7bff78fcfae7227b2d918828a92d7c738185b4a87cdddfb28485e22953d41e0ddf37717ab565e502bb56354e15700000000000000000000000000000000000000000000000000038d7ea4c68000",
          "blockHash": "0x54ac72b603b15ddee4a8c12115b6c04e64a63de0fc46bb937019f87faaf13d71",
          "blockNumber": "0xb40105",
          "transactionHash": "0x4ad32ad0ddbc40113158fb4ea5fe7d28a945415bd1a72b64a6c83e964abcf537",
          "transactionIndex": "0x2",
          "logIndex": "0x12",
          "removed": false
        }
      ],
      "logsBloom": "0x00000000000000000000000000000000000000000000000000000000400000000000000000000000800000000000000000000000000000000000000000000000000000000000000000000000000000004000000000000000100c00000000000000000000000000000000000000000000000000000000000000000000000000000000000000004000000000000000000000000000000000000000000000000000000000000000000000000000000000000000008000000000000000000000000000000000000000000000000000000000000000000000000010000000000000000000000000000000000000000000000000000000000000000000000000000000",
      "type": "0x2",
      "transactionHash": "0x4ad32ad0ddbc40113158fb4ea5fe7d28a945415bd1a72b64a6c83e964abcf537",
      "transactionIndex": "0x2",
      "blockHash": "0x54ac72b603b15ddee4a8c12115b6c04e64a63de0fc46bb937019f87faaf13d71",
      "blockNumber": "0xb40105",
      "gasUsed": "0xa2ba",
      "effectiveGasPrice": "0xf434a",
      "from": "0x869140c91edf43214a3ecedeaf777cc7107ad71a",
      "to": "0x16ee2051a0613e5c52127755ee3110cf4cd1ca10",
      "contractAddress": null,
      "l1BaseFeeScalar": "0x44d",
      "l1BlobBaseFee": "0x1",
      "l1BlobBaseFeeScalar": "0xa118b",
      "l1Fee": "0x12ec04a62",
      "l1GasPrice": "0x8d9a668d",
      "l1GasUsed": "0x795"
    }
  ],
  "libraries": [],
  "pending": [],
  "returns": {},
  "timestamp": 1719361775,
  "chain": 84532,
  "commit": "4116686"
}