{
  "transactions": [
    {
      "hash": "0xbf11f7a01023e1c6cc313849ee69c7a6a3db883b079c7aef7964f843ebd9e078",
      "transactionType": "CALL",
      "contractName": null,
      "contractAddress": "0x16ee2051a0613e5c52127755ee3110cf4cd1ca10",
      "function": "setDiscountDetails((bool,address,bytes32,uint256))",
      "arguments": [
        "(true, 0x1079eF978d3c2A6CD4db142118D3C904E0Ac4Fc7, 0xd7c738185b4a87cdddfb28485e22953d41e0ddf37717ab565e502bb56354e157, 1000000000000000)"
      ],
      "transaction": {
        "from": "0x869140c91edf43214a3ecedeaf777cc7107ad71a",
        "to": "0x16ee2051a0613e5c52127755ee3110cf4cd1ca10",
        "gas": "0xec41",
        "value": "0x0",
        "input": "0x682baa9000000000000000000000000000000000000000000000000000000000000000010000000000000000000000001079ef978d3c2a6cd4db142118d3c904e0ac4fc7d7c738185b4a87cdddfb28485e22953d41e0ddf37717ab565e502bb56354e15700000000000000000000000000000000000000000000000000038d7ea4c68000",
        "nonce": "0x46",
        "chainId": "0x14a34"
      },
      "additionalContracts": [],
      "isFixedGasLimit": false
    }
  ],
  "receipts": [
    {
      "status": "0x1",
      "cumulativeGasUsed": "0x2b069a",
      "logs": [
        {
          "address": "0x16ee2051a0613e5c52127755ee3110cf4cd1ca10",
          "topics": [
            "0x8e8593a48f626f59b50ae7022bc900a089280e27a89c5d7c1a4ca9a4338b47d1",
            "0xd7c738185b4a87cdddfb28485e22953d41e0ddf37717ab565e502bb56354e157"
          ],
          "data": "0x00000000000000000000000000000000000000000000000000000000000000010000000000000000000000001079ef978d3c2a6cd4db142118d3c904e0ac4fc7d7c738185b4a87cdddfb28485e22953d41e0ddf37717ab565e502bb56354e15700000000000000000000000000000000000000000000000000038d7ea4c68000",
          "blockHash": "0xb9763d01b4eb908dd4d009d28306954eaa004e1d7d25e9046afea02dc07b9bf7",
          "blockNumber": "0xb3ff9b",
          "transactionHash": "0xbf11f7a01023e1c6cc313849ee69c7a6a3db883b079c7aef7964f843ebd9e078",
          "transactionIndex": "0x11",
          "logIndex": "0x1f",
          "removed": false
        }
      ],
      "logsBloom": "0x00000000000000000000000000000000000000000000000000000000400000000000000000000000800000000000000000000000000000000000000000000000000000000000000000000000000000004000000000000000100c00000000000000000000000000000000000000000000000000000000000000000000000000000000000000004000000000000000000000000000000000000000000000000000000000000000000000000000000000000000008000000000000000000000000000000000000000000000000000000000000000000000000010000000000000000000000000000000000000000000000000000000000000000000000000000000",
      "type": "0x2",
      "transactionHash": "0xbf11f7a01023e1c6cc313849ee69c7a6a3db883b079c7aef7964f843ebd9e078",
      "transactionIndex": "0x11",
      "blockHash": "0xb9763d01b4eb908dd4d009d28306954eaa004e1d7d25e9046afea02dc07b9bf7",
      "blockNumber": "0xb3ff9b",
      "gasUsed": "0xab0c",
      "effectiveGasPrice": "0x1006a5",
      "from": "0x869140c91edf43214a3ecedeaf777cc7107ad71a",
      "to": "0x16ee2051a0613e5c52127755ee3110cf4cd1ca10",
      "contractAddress": null,
      "l1BaseFeeScalar": "0x44d",
      "l1BlobBaseFee": "0x1",
      "l1BlobBaseFeeScalar": "0xa118b",
      "l1Fee": "0x33e8fcc2e",
      "l1GasPrice": "0x18478a934",
      "l1GasUsed": "0x795"
    }
  ],
  "libraries": [],
  "pending": [],
  "returns": {},
  "timestamp": 1719361052,
  "chain": 84532,
  "commit": "dcdb812"
}