{
  "transactions": [
    {
      "hash": "0x6237b007bc065dd39cbfd098262f6ecfa21cbf0aa960717270165fd83d1704bb",
      "transactionType": "CALL",
      "contractName": null,
      "contractAddress": "0xc8b5d24753588fc7ed134df8870f9d5544a3836e",
      "function": "setDiscountDetails(bytes32,(bool,address,uint256))",
      "arguments": [
        "0x4b496d86d194fbc8bb0542a289ba644317a824ad694564c3e81ae42a44cd419c",
        "(true, 0x10b256745CeA5c71d85982316CC5427E7bE0ed8b, 10000000000000000000)"
      ],
      "transaction": {
        "from": "0x869140c91edf43214a3ecedeaf777cc7107ad71a",
        "to": "0xc8b5d24753588fc7ed134df8870f9d5544a3836e",
        "gas": "0x20714",
        "value": "0x0",
        "input": "0x7a8613804b496d86d194fbc8bb0542a289ba644317a824ad694564c3e81ae42a44cd419c000000000000000000000000000000000000000000000000000000000000000100000000000000000000000010b256745cea5c71d85982316cc5427e7be0ed8b0000000000000000000000000000000000000000000000008ac7230489e80000",
        "nonce": "0x2e",
        "chainId": "0x14a34"
      },
      "additionalContracts": [],
      "isFixedGasLimit": false
    }
  ],
  "receipts": [
    {
      "status": "0x1",
      "cumulativeGasUsed": "0x41ecc",
      "logs": [
        {
          "address": "0xc8b5d24753588fc7ed134df8870f9d5544a3836e",
          "topics": [
            "0x0a0b2dd49493e19bed97a285db1086049aa3a050889fef9ae2460452faa8d0b1",
            "0x4b496d86d194fbc8bb0542a289ba644317a824ad694564c3e81ae42a44cd419c"
          ],
          "data": "0x000000000000000000000000000000000000000000000000000000000000000100000000000000000000000010b256745cea5c71d85982316cc5427e7be0ed8b0000000000000000000000000000000000000000000000008ac7230489e80000",
          "blockHash": "0x6d50e39e162d34ddc68986b0e71ee9611e1f903349dcdbf95bae0809ae10d9b0",
          "blockNumber": "0xaa0d8f",
          "transactionHash": "0x6237b007bc065dd39cbfd098262f6ecfa21cbf0aa960717270165fd83d1704bb",
          "transactionIndex": "0x4",
          "logIndex": "0x1",
          "removed": false
        }
      ],
      "logsBloom": "0x00000002002000000000000000000000000000000000000000000000000000000000000000000000000000000000000000000000000010000000000000000000000000000000000000040000000000000000000000000000000000080000000001000000000000000000000000000000000000000000000000000000000000000000000000000000000000000000000000000000000000000000000000000000000000000000000000000000000000000000000000000000000000000000000000000000000400000000000000000000000000000000000000000200000000000000000000000000000000000000000000000010000000000000000000000000",
      "type": "0x2",
      "transactionHash": "0x6237b007bc065dd39cbfd098262f6ecfa21cbf0aa960717270165fd83d1704bb",
      "transactionIndex": "0x4",
      "blockHash": "0x6d50e39e162d34ddc68986b0e71ee9611e1f903349dcdbf95bae0809ae10d9b0",
      "blockNumber": "0xaa0d8f",
      "gasUsed": "0x177cf",
      "effectiveGasPrice": "0xf4343",
      "from": "0x869140c91edf43214a3ecedeaf777cc7107ad71a",
      "to": "0xc8b5d24753588fc7ed134df8870f9d5544a3836e",
      "contractAddress": null,
      "l1BaseFeeScalar": "0x44d",
      "l1BlobBaseFee": "0x1",
      "l1BlobBaseFeeScalar": "0xa118b",
      "l1Fee": "0x6a70f593",
      "l1GasPrice": "0x311b9f62",
      "l1GasUsed": "0x7b0"
    }
  ],
  "libraries": [],
  "pending": [],
  "returns": {},
  "timestamp": 1718057476,
  "chain": 84532,
  "commit": "0db35af"
}