{
  "transactions": [
    {
      "hash": "0xea69467ad8ab46819945bc09be651d1a9d23eccacaf4228fb54d2bbe4ffd09f8",
      "transactionType": "CALL",
      "contractName": null,
      "contractAddress": "0x16ee2051a0613e5c52127755ee3110cf4cd1ca10",
      "function": "setDiscountDetails((bool,address,bytes32,uint256))",
      "arguments": [
        "(true, 0xE41Cd25f429E10744938d5048646E721ac630aF3, 0xd7c738185b4a87cdddfb28485e22953d41e0ddf37717ab565e502bb56354e157, 1000000000000000)"
      ],
      "transaction": {
        "from": "0x869140c91edf43214a3ecedeaf777cc7107ad71a",
        "to": "0x16ee2051a0613e5c52127755ee3110cf4cd1ca10",
        "gas": "0xdd25",
        "value": "0x0",
        "input": "0x682baa900000000000000000000000000000000000000000000000000000000000000001000000000000000000000000e41cd25f429e10744938d5048646e721ac630af3d7c738185b4a87cdddfb28485e22953d41e0ddf37717ab565e502bb56354e15700000000000000000000000000000000000000000000000000038d7ea4c68000",
        "nonce": "0x48",
        "chainId": "0x14a34"
      },
      "additionalContracts": [],
      "isFixedGasLimit": false
    }
  ],
  "receipts": [
    {
      "status": "0x1",
      "cumulativeGasUsed": "0x128239",
      "logs": [
        {
          "address": "0x16ee2051a0613e5c52127755ee3110cf4cd1ca10",
          "topics": [
            "0x8e8593a48f626f59b50ae7022bc900a089280e27a89c5d7c1a4ca9a4338b47d1",
            "0xd7c738185b4a87cdddfb28485e22953d41e0ddf37717ab565e502bb56354e157"
          ],
          "data": "0x0000000000000000000000000000000000000000000000000000000000000001000000000000000000000000e41cd25f429e10744938d5048646e721ac630af3d7c738185b4a87cdddfb28485e22953d41e0ddf37717ab565e502bb56354e15700000000000000000000000000000000000000000000000000038d7ea4c68000",
          "blockHash": "0x532f46db216376530ae186f3286a28f265929e418c6c81d32f987c0f0780e3fd",
          "blockNumber": "0xb4008e",
          "transactionHash": "0xea69467ad8ab46819945bc09be651d1a9d23eccacaf4228fb54d2bbe4ffd09f8",
          "transactionIndex": "0x5",
          "logIndex": "0xd",
          "removed": false
        }
      ],
      "logsBloom": "0x00000000000000000000000000000000000000000000000000000000400000000000000000000000800000000000000000000000000000000000000000000000000000000000000000000000000000004000000000000000100c00000000000000000000000000000000000000000000000000000000000000000000000000000000000000004000000000000000000000000000000000000000000000000000000000000000000000000000000000000000008000000000000000000000000000000000000000000000000000000000000000000000000010000000000000000000000000000000000000000000000000000000000000000000000000000000",
      "type": "0x2",
      "transactionHash": "0xea69467ad8ab46819945bc09be651d1a9d23eccacaf4228fb54d2bbe4ffd09f8",
      "transactionIndex": "0x5",
      "blockHash": "0x532f46db216376530ae186f3286a28f265929e418c6c81d32f987c0f0780e3fd",
      "blockNumber": "0xb4008e",
      "gasUsed": "0xa01c",
      "effectiveGasPrice": "0xf434a",
      "from": "0x869140c91edf43214a3ecedeaf777cc7107ad71a",
      "to": "0x16ee2051a0613e5c52127755ee3110cf4cd1ca10",
      "contractAddress": null,
      "l1BaseFeeScalar": "0x44d",
      "l1BlobBaseFee": "0x1",
      "l1BlobBaseFeeScalar": "0xa118b",
      "l1Fee": "0x161584ab0",
      "l1GasPrice": "0xa544538c",
      "l1GasUsed": "0x795"
    }
  ],
  "libraries": [],
  "pending": [],
  "returns": {},
  "timestamp": 1719361537,
  "chain": 84532,
  "commit": "4db9e6f"
}