{
  "transactions": [
    {
      "hash": "0xafae2a75261ba22f3e71199a4b1851bbed67b35c0f6d65b6be54d9f48df7d046",
      "transactionType": "CALL",
      "contractName": null,
      "contractAddress": "0x16ee2051a0613e5c52127755ee3110cf4cd1ca10",
      "function": "setDiscountDetails((bool,address,bytes32,uint256))",
      "arguments": [
        "(true, 0x1079eF978d3c2A6CD4db142118D3C904E0Ac4Fc7, 0x51a5a42a1e8f8f9700bb48594d76135443eede20cf2497051d7d6345bac695e6, 1000000000000000)"
      ],
      "transaction": {
        "from": "0x869140c91edf43214a3ecedeaf777cc7107ad71a",
        "to": "0x16ee2051a0613e5c52127755ee3110cf4cd1ca10",
        "gas": "0x296b2",
        "value": "0x0",
        "input": "0x682baa9000000000000000000000000000000000000000000000000000000000000000010000000000000000000000001079ef978d3c2a6cd4db142118d3c904e0ac4fc751a5a42a1e8f8f9700bb48594d76135443eede20cf2497051d7d6345bac695e600000000000000000000000000000000000000000000000000038d7ea4c68000",
        "nonce": "0x49",
        "chainId": "0x14a34"
      },
      "additionalContracts": [],
      "isFixedGasLimit": false
    }
  ],
  "receipts": [
    {
      "status": "0x1",
      "cumulativeGasUsed": "0xec3bf",
      "logs": [
        {
          "address": "0x16ee2051a0613e5c52127755ee3110cf4cd1ca10",
          "topics": [
            "0x8e8593a48f626f59b50ae7022bc900a089280e27a89c5d7c1a4ca9a4338b47d1",
            "0x51a5a42a1e8f8f9700bb48594d76135443eede20cf2497051d7d6345bac695e6"
          ],
          "data": "0x00000000000000000000000000000000000000000000000000000000000000010000000000000000000000001079ef978d3c2a6cd4db142118d3c904e0ac4fc751a5a42a1e8f8f9700bb48594d76135443eede20cf2497051d7d6345bac695e600000000000000000000000000000000000000000000000000038d7ea4c68000",
          "blockHash": "0xebea5d7f64f9173d25da0364aaad4d2a382dbc2f01af93d188afdcd47d2d1e4d",
          "blockNumber": "0xb400a1",
          "transactionHash": "0xafae2a75261ba22f3e71199a4b1851bbed67b35c0f6d65b6be54d9f48df7d046",
          "transactionIndex": "0x4",
          "logIndex": "0xd",
          "removed": false
        }
      ],
      "logsBloom": "0x00000000000000000000000000000000000000000000000000000000400000000000000000000000800000000000000000000000000000000000000000080000000000000000000000000000000000000000000000000000100800000000000000000000000000000000000000000000000008000000000000000000000000000000000000004000000000000000000000000000000000000000000000000000000000000000000000000000000000000000008000000000000000000000000000000000000000000000000080000000000000000000000000000000000000000000000000000000000000000000000000000000000000000000000000000000",
      "type": "0x2",
      "transactionHash": "0xafae2a75261ba22f3e71199a4b1851bbed67b35c0f6d65b6be54d9f48df7d046",
      "transactionIndex": "0x4",
      "blockHash": "0xebea5d7f64f9173d25da0364aaad4d2a382dbc2f01af93d188afdcd47d2d1e4d",
      "blockNumber": "0xb400a1",
      "gasUsed": "0x1dfc8",
      "effectiveGasPrice": "0xf434b",
      "from": "0x869140c91edf43214a3ecedeaf777cc7107ad71a",
      "to": "0x16ee2051a0613e5c52127755ee3110cf4cd1ca10",
      "contractAddress": null,
      "l1BaseFeeScalar": "0x44d",
      "l1BlobBaseFee": "0x1",
      "l1BlobBaseFeeScalar": "0xa118b",
      "l1Fee": "0x163dcd6f3",
      "l1GasPrice": "0xa54e20e1",
      "l1GasUsed": "0x7a3"
    }
  ],
  "libraries": [],
  "pending": [],
  "returns": {},
  "timestamp": 1719361576,
  "chain": 84532,
  "commit": "4db9e6f"
}