{
  "transactions": [
    {
      "hash": "0x6f4ba14b8e6b5cce733210019f9c7f1e7c5ad816c2ca488915e8f3f300b5317e",
      "transactionType": "CALL",
      "contractName": "L1Resolver",
      "contractAddress": "0x0a702b2475878628ff6a9a4be5e18e6db9b74ed3",
      "function": "addSigners(address[])",
      "arguments": [
        "[0x0ae910AFA602F5460c4A6eDEc98A4F429901fAE2]"
      ],
      "transaction": {
        "from": "0x869140c91edf43214a3ecedeaf777cc7107ad71a",
        "to": "0x0a702b2475878628ff6a9a4be5e18e6db9b74ed3",
        "gas": "0x11640",
        "value": "0x0",
        "input": "0xe8906a2d000000000000000000000000000000000000000000000000000000000000002000000000000000000000000000000000000000000000000000000000000000010000000000000000000000000ae910afa602f5460c4a6edec98a4f429901fae2",
        "nonce": "0x6",
        "chainId": "0xaa36a7"
      },
      "additionalContracts": [],
      "isFixedGasLimit": false
    }
  ],
  "receipts": [
    {
      "status": "0x1",
      "cumulativeGasUsed": "0x6e921b",
      "logs": [
        {
          "address": "0x0a702b2475878628ff6a9a4be5e18e6db9b74ed3",
          "topics": [
            "0xab0b9cc3a46b568cb08d985497cde8ab7e18892d01f58db7dc7f0d2af859b2d7"
          ],
          "data": "0x000000000000000000000000000000000000000000000000000000000000002000000000000000000000000000000000000000000000000000000000000000010000000000000000000000000ae910afa602f5460c4a6edec98a4f429901fae2",
          "blockHash": "0x3b36c60972601a18e5927480bb4d4465a965ddfaba86913eb34862544b5e0dd2",
          "blockNumber": "0x5dd855",
          "transactionHash": "0x6f4ba14b8e6b5cce733210019f9c7f1e7c5ad816c2ca488915e8f3f300b5317e",
          "transactionIndex": "0x46",
          "logIndex": "0x6d",
          "removed": false
        }
      ],
      "logsBloom": "0x00000000000000000000000000000000000000000000000000000000000000000000000000000000000000000000000000000000000000000000000000000000000000000000008000000000000000000000000000000000002000000000000000000000000000008000000000000000000000000000000000000000000000000000000000000000000000000000000000000000000000000000000000000000000000000000000000000000000000000000000000000000000000000000000000000000000000000000000000000000000000000000000000000000004000000000000000000000000100000000000000000000200000000000000000000000",
      "type": "0x2",
      "transactionHash": "0x6f4ba14b8e6b5cce733210019f9c7f1e7c5ad816c2ca488915e8f3f300b5317e",
      "transactionIndex": "0x46",
      "blockHash": "0x3b36c60972601a18e5927480bb4d4465a965ddfaba86913eb34862544b5e0dd2",
      "blockNumber": "0x5dd855",
      "gasUsed": "0xbe42",
      "effectiveGasPrice": "0x1f2e0372",
      "from": "0x869140c91edf43214a3ecedeaf777cc7107ad71a",
      "to": "0x0a702b2475878628ff6a9a4be5e18e6db9b74ed3",
      "contractAddress": null
    }
  ],
  "libraries": [],
  "pending": [],
  "returns": {},
  "timestamp": 1718918784,
  "chain": 11155111,
  "commit": "082ed1b"
}