{
  "transactions": [
    {
      "hash": "0x5385b5f8b2376ca4d7888e7b6d7f429ca4e88640292e38ebddfd3bfd9959063e",
      "transactionType": "CALL",
      "contractName": null,
      "contractAddress": "0x5F15c3B5949F5767F5Ca9013a8E4Ca4D97a053eD",
      "function": "setUrl(string)",
      "arguments": [
        "\"http://localhost:8000/api/v1/domain/resolver/resolveDomain/{sender}/{data}\""
      ],
      "transaction": {
        "type": "0x02",
        "from": "0x869140c91edf43214a3ecedeaf777cc7107ad71a",
        "to": "0x5f15c3b5949f5767f5ca9013a8e4ca4d97a053ed",
        "gas": "0x10736",
        "value": "0x0",
        "data": "0x252498a20000000000000000000000000000000000000000000000000000000000000020000000000000000000000000000000000000000000000000000000000000004a687474703a2f2f6c6f63616c686f73743a383030302f6170692f76312f646f6d61696e2f7265736f6c7665722f7265736f6c7665446f6d61696e2f7b73656e6465727d2f7b646174617d00000000000000000000000000000000000000000000",
        "nonce": "0x2",
        "accessList": []
      },
      "additionalContracts": [],
      "isFixedGasLimit": false
    }
  ],
  "receipts": [
    {
      "transactionHash": "0x5385b5f8b2376ca4d7888e7b6d7f429ca4e88640292e38ebddfd3bfd9959063e",
      "transactionIndex": "0x3",
      "blockHash": "0x5403573a93adc83ab9b82706d77d82c504b7e8b38921132f0827ee2de56fe02f",
      "blockNumber": "0x59fb42",
      "from": "0x869140c91eDF43214a3EcEdEAF777cc7107aD71a",
      "to": "0x5F15c3B5949F5767F5Ca9013a8E4Ca4D97a053eD",
      "cumulativeGasUsed": "0x635df",
      "gasUsed": "0xb3fa",
      "contractAddress": null,
      "logs": [],
      "status": "0x1",
      "logsBloom": "0x00000000000000000000000000000000000000000000000000000000000000000000000000000000000000000000000000000000000000000000000000000000000000000000000000000000000000000000000000000000000000000000000000000000000000000000000000000000000000000000000000000000000000000000000000000000000000000000000000000000000000000000000000000000000000000000000000000000000000000000000000000000000000000000000000000000000000000000000000000000000000000000000000000000000000000000000000000000000000000000000000000000000000000000000000000000",
      "type": "0x2",
      "effectiveGasPrice": "0x433be5a18"
    }
  ],
  "libraries": [],
  "pending": [],
  "returns": {},
  "timestamp": 1715636990,
  "chain": 11155111,
  "commit": "5f0dc54"
}