{
  "transactions": [
    {
      "hash": "0xdfa2c981a090d337fee0e63814b350fc58d3a60adbc01f747a915b8fba1df7d1",
      "transactionType": "CALL",
      "contractName": null,
      "contractAddress": "0xc5cdbd63fabf387845ea817cc6bad73a0fb9771a",
      "function": "addController(address)",
      "arguments": [
        "0xC8b5d24753588fc7eD134dF8870F9D5544A3836e"
      ],
      "transaction": {
        "from": "0x869140c91edf43214a3ecedeaf777cc7107ad71a",
        "to": "0xc5cdbd63fabf387845ea817cc6bad73a0fb9771a",
        "gas": "0xff6e",
        "value": "0x0",
        "input": "0xa7fc7a07000000000000000000000000c8b5d24753588fc7ed134df8870f9d5544a3836e",
        "nonce": "0x2f",
        "chainId": "0x14a34"
      },
      "additionalContracts": [],
      "isFixedGasLimit": false
    }
  ],
  "receipts": [
    {
      "status": "0x1",
      "cumulativeGasUsed": "0x58b74",
      "logs": [
        {
          "address": "0xc5cdbd63fabf387845ea817cc6bad73a0fb9771a",
          "topics": [
            "0x0a8bb31534c0ed46f380cb867bd5c803a189ced9a764e30b3a4991a9901d7474",
            "0x000000000000000000000000c8b5d24753588fc7ed134df8870f9d5544a3836e"
          ],
          "data": "0x",
          "blockHash": "0x87b1df6b5154fdeca44151821cd3a80a7415907bb768b8544a1f37382a56e2eb",
          "blockNumber": "0xaa0df2",
          "transactionHash": "0xdfa2c981a090d337fee0e63814b350fc58d3a60adbc01f747a915b8fba1df7d1",
          "transactionIndex": "0x9",
          "logIndex": "0x3",
          "removed": false
        }
      ],
      "logsBloom": "0x00000000000000000000000000000000000000000400000000000000000000000000000000000000000000000000000000000000000000000000000000000010000200000000000000000000020000000000000000000000000000000000000000000000000000000000000000000000008100000000000000000000000000000000000000000000000000000000000000000000000000000000000000000000000000000000000000000000000000000000000000008000000000000000000000000000000000000000000000000000100000000000000000000000000000000000020000000000000000000000000000000000000000000000000000000000",
      "type": "0x2",
      "transactionHash": "0xdfa2c981a090d337fee0e63814b350fc58d3a60adbc01f747a915b8fba1df7d1",
      "transactionIndex": "0x9",
      "blockHash": "0x87b1df6b5154fdeca44151821cd3a80a7415907bb768b8544a1f37382a56e2eb",
      "blockNumber": "0xaa0df2",
      "gasUsed": "0xb8ee",
      "effectiveGasPrice": "0x187a1",
      "from": "0x869140c91edf43214a3ecedeaf777cc7107ad71a",
      "to": "0xc5cdbd63fabf387845ea817cc6bad73a0fb9771a",
      "contractAddress": null,
      "l1BaseFeeScalar": "0x44d",
      "l1BlobBaseFee": "0x1",
      "l1BlobBaseFeeScalar": "0xa118b",
      "l1Fee": "0x4eee72f1",
      "l1GasPrice": "0x2cce8235",
      "l1GasUsed": "0x640"
    }
  ],
  "libraries": [],
  "pending": [],
  "returns": {},
  "timestamp": 1718057674,
  "chain": 84532,
  "commit": "0db35af"
}