{
  "transactions": [
    {
      "hash": "0x55fa177acd1be207d897af7371f23ba716a90d7110f9cd37ddf8d932d7885d1d",
      "transactionType": "CALL",
      "contractName": null,
      "contractAddress": "0xc8b5d24753588fc7ed134df8870f9d5544a3836e",
      "function": "discountedRegister((string,address,uint256,address,bytes[],bool),bytes32,bytes)",
      "arguments": [
        "(\"steve\", 0xB18e4C959bccc8EF86D78DC297fb5efA99550d85, 31536000, 0x51A16746Af2247DCA3665c078cCCf5678d19E366, [0xd5fa2b001107965147e9b4c5a88417ee19c3274a37e4a9ac9082809edefc6f3bf7b0e2f1000000000000000000000000b18e4c959bccc8ef86d78dc297fb5efa99550d85, 0x10f13a8c1107965147e9b4c5a88417ee19c3274a37e4a9ac9082809edefc6f3bf7b0e2f1000000000000000000000000000000000000000000000000000000000000006000000000000000000000000000000000000000000000000000000000000000a00000000000000000000000000000000000000000000000000000000000000007616d69636f6f6c0000000000000000000000000000000000000000000000000000000000000000000000000000000000000000000000000000000000000000037965730000000000000000000000000000000000000000000000000000000000], false)",
        "0x4b496d86d194fbc8bb0542a289ba644317a824ad694564c3e81ae42a44cd419c",
        "0x"
      ],
      "transaction": {
        "from": "0x869140c91edf43214a3ecedeaf777cc7107ad71a",
        "to": "0xc8b5d24753588fc7ed134df8870f9d5544a3836e",
        "gas": "0x65d24",
        "value": "0x0",
        "input": "0xe0093eda00000000000000000000000000000000000000000000000000000000000000604b496d86d194fbc8bb0542a289ba644317a824ad694564c3e81ae42a44cd419c000000000000000000000000000000000000000000000000000000000000036000000000000000000000000000000000000000000000000000000000000000c0000000000000000000000000b18e4c959bccc8ef86d78dc297fb5efa99550d850000000000000000000000000000000000000000000000000000000001e1338000000000000000000000000051a16746af2247dca3665c078cccf5678d19e36600000000000000000000000000000000000000000000000000000000000001000000000000000000000000000000000000000000000000000000000000000000000000000000000000000000000000000000000000000000000000000000000573746576650000000000000000000000000000000000000000000000000000000000000000000000000000000000000000000000000000000000000000000002000000000000000000000000000000000000000000000000000000000000004000000000000000000000000000000000000000000000000000000000000000c00000000000000000000000000000000000000000000000000000000000000044d5fa2b001107965147e9b4c5a88417ee19c3274a37e4a9ac9082809edefc6f3bf7b0e2f1000000000000000000000000b18e4c959bccc8ef86d78dc297fb5efa99550d850000000000000000000000000000000000000000000000000000000000000000000000000000000000000000000000000000000000000000000000e410f13a8c1107965147e9b4c5a88417ee19c3274a37e4a9ac9082809edefc6f3bf7b0e2f1000000000000000000000000000000000000000000000000000000000000006000000000000000000000000000000000000000000000000000000000000000a00000000000000000000000000000000000000000000000000000000000000007616d69636f6f6c0000000000000000000000000000000000000000000000000000000000000000000000000000000000000000000000000000000000000000037965730000000000000000000000000000000000000000000000000000000000000000000000000000000000000000000000000000000000000000000000000000000000000000000000000000000000000000000000000000000000",
        "nonce": "0x30",
        "chainId": "0x14a34"
      },
      "additionalContracts": [],
      "isFixedGasLimit": false
    }
  ],
  "receipts": [
    {
      "status": "0x1",
      "cumulativeGasUsed": "0x525e9",
      "logs": [
        {
          "address": "0xc8b5d24753588fc7ed134df8870f9d5544a3836e",
          "topics": [
            "0xbc769889246686134856b409155bb87630ea5797a705fa98b61f576d316aab9b",
            "0x000000000000000000000000869140c91edf43214a3ecedeaf777cc7107ad71a"
          ],
          "data": "0x0000000000000000000000000000000000000000000000000000000000000000",
          "blockHash": "0x531d5d171d2ea6fefbda43b67064c39411a3daba3b5f0d07a0d8e3ecbcfdf907",
          "blockNumber": "0xaa1047",
          "transactionHash": "0x55fa177acd1be207d897af7371f23ba716a90d7110f9cd37ddf8d932d7885d1d",
          "transactionIndex": "0x1",
          "logIndex": "0x0",
          "removed": false
        },
        {
          "address": "0xc5cdbd63fabf387845ea817cc6bad73a0fb9771a",
          "topics": [
            "0xddf252ad1be2c89b69c2b068fc378daa952ba7f163c4a11628f55a4df523b3ef",
            "0x0000000000000000000000000000000000000000000000000000000000000000",
            "0x000000000000000000000000b18e4c959bccc8ef86d78dc297fb5efa99550d85",
            "0x05611ac011f4c8af2adf5f5b850fe4359224029d343b8627d112910fc1943e18"
          ],
          "data": "0x",
          "blockHash": "0x531d5d171d2ea6fefbda43b67064c39411a3daba3b5f0d07a0d8e3ecbcfdf907",
          "blockNumber": "0xaa1047",
          "transactionHash": "0x55fa177acd1be207d897af7371f23ba716a90d7110f9cd37ddf8d932d7885d1d",
          "transactionIndex": "0x1",
          "logIndex": "0x1",
          "removed": false
        },
        {
          "address": "0x1d3c6cf6737921c798f07cd6469a72f173166657",
          "topics": [
            "0xce0457fe73731f824cc272376169235128c118b49d344817417c6d108d155e82",
            "0x646204f07e7fcd394a508306bf1148a1e13d14287fa33839bf9ad63755f547c6",
            "0x05611ac011f4c8af2adf5f5b850fe4359224029d343b8627d112910fc1943e18"
          ],
          "data": "0x000000000000000000000000b18e4c959bccc8ef86d78dc297fb5efa99550d85",
          "blockHash": "0x531d5d171d2ea6fefbda43b67064c39411a3daba3b5f0d07a0d8e3ecbcfdf907",
          "blockNumber": "0xaa1047",
          "transactionHash": "0x55fa177acd1be207d897af7371f23ba716a90d7110f9cd37ddf8d932d7885d1d",
          "transactionIndex": "0x1",
          "logIndex": "0x2",
          "removed": false
        },
        {
          "address": "0x1d3c6cf6737921c798f07cd6469a72f173166657",
          "topics": [
            "0x335721b01866dc23fbee8b6b2c7b1e14d6f05c28cd35a2c934239f94095602a0",
            "0x1107965147e9b4c5a88417ee19c3274a37e4a9ac9082809edefc6f3bf7b0e2f1"
          ],
          "data": "0x00000000000000000000000051a16746af2247dca3665c078cccf5678d19e366",
          "blockHash": "0x531d5d171d2ea6fefbda43b67064c39411a3daba3b5f0d07a0d8e3ecbcfdf907",
          "blockNumber": "0xaa1047",
          "transactionHash": "0x55fa177acd1be207d897af7371f23ba716a90d7110f9cd37ddf8d932d7885d1d",
          "transactionIndex": "0x1",
          "logIndex": "0x3",
          "removed": false
        },
        {
          "address": "0xc5cdbd63fabf387845ea817cc6bad73a0fb9771a",
          "topics": [
            "0xfd724d251af149ea2929b9061ddab2bb31e2d87778cc0acfa1d68add62e222e8",
            "0x05611ac011f4c8af2adf5f5b850fe4359224029d343b8627d112910fc1943e18",
            "0x000000000000000000000000b18e4c959bccc8ef86d78dc297fb5efa99550d85"
          ],
          "data": "0x000000000000000000000000000000000000000000000000000000006848b2ee00000000000000000000000051a16746af2247dca3665c078cccf5678d19e3660000000000000000000000000000000000000000000000000000000000000000",
          "blockHash": "0x531d5d171d2ea6fefbda43b67064c39411a3daba3b5f0d07a0d8e3ecbcfdf907",
          "blockNumber": "0xaa1047",
          "transactionHash": "0x55fa177acd1be207d897af7371f23ba716a90d7110f9cd37ddf8d932d7885d1d",
          "transactionIndex": "0x1",
          "logIndex": "0x4",
          "removed": false
        },
        {
          "address": "0x51a16746af2247dca3665c078cccf5678d19e366",
          "topics": [
            "0x65412581168e88a1e60c6459d7f44ae83ad0832e670826c05a4e2476b57af752",
            "0x1107965147e9b4c5a88417ee19c3274a37e4a9ac9082809edefc6f3bf7b0e2f1"
          ],
          "data": "0x000000000000000000000000000000000000000000000000000000000000003c00000000000000000000000000000000000000000000000000000000000000400000000000000000000000000000000000000000000000000000000000000014b18e4c959bccc8ef86d78dc297fb5efa99550d85000000000000000000000000",
          "blockHash": "0x531d5d171d2ea6fefbda43b67064c39411a3daba3b5f0d07a0d8e3ecbcfdf907",
          "blockNumber": "0xaa1047",
          "transactionHash": "0x55fa177acd1be207d897af7371f23ba716a90d7110f9cd37ddf8d932d7885d1d",
          "transactionIndex": "0x1",
          "logIndex": "0x5",
          "removed": false
        },
        {
          "address": "0x51a16746af2247dca3665c078cccf5678d19e366",
          "topics": [
            "0x52d7d861f09ab3d26239d492e8968629f95e9e318cf0b73bfddc441522a15fd2",
            "0x1107965147e9b4c5a88417ee19c3274a37e4a9ac9082809edefc6f3bf7b0e2f1"
          ],
          "data": "0x000000000000000000000000b18e4c959bccc8ef86d78dc297fb5efa99550d85",
          "blockHash": "0x531d5d171d2ea6fefbda43b67064c39411a3daba3b5f0d07a0d8e3ecbcfdf907",
          "blockNumber": "0xaa1047",
          "transactionHash": "0x55fa177acd1be207d897af7371f23ba716a90d7110f9cd37ddf8d932d7885d1d",
          "transactionIndex": "0x1",
          "logIndex": "0x6",
          "removed": false
        },
        {
          "address": "0x51a16746af2247dca3665c078cccf5678d19e366",
          "topics": [
            "0x448bc014f1536726cf8d54ff3d6481ed3cbc683c2591ca204274009afa09b1a1",
            "0x1107965147e9b4c5a88417ee19c3274a37e4a9ac9082809edefc6f3bf7b0e2f1",
            "0x62e13624df7b7b9f7047f38778ac4edf3d238dedb540fdbe5b8528dc0b757fa0"
          ],
          "data": "0x000000000000000000000000000000000000000000000000000000000000004000000000000000000000000000000000000000000000000000000000000000800000000000000000000000000000000000000000000000000000000000000007616d69636f6f6c0000000000000000000000000000000000000000000000000000000000000000000000000000000000000000000000000000000000000000037965730000000000000000000000000000000000000000000000000000000000",
          "blockHash": "0x531d5d171d2ea6fefbda43b67064c39411a3daba3b5f0d07a0d8e3ecbcfdf907",
          "blockNumber": "0xaa1047",
          "transactionHash": "0x55fa177acd1be207d897af7371f23ba716a90d7110f9cd37ddf8d932d7885d1d",
          "transactionIndex": "0x1",
          "logIndex": "0x7",
          "removed": false
        },
        {
          "address": "0xc8b5d24753588fc7ed134df8870f9d5544a3836e",
          "topics": [
            "0x0667086d08417333ce63f40d5bc2ef6fd330e25aaaf317b7c489541f8fe600fa",
            "0x05611ac011f4c8af2adf5f5b850fe4359224029d343b8627d112910fc1943e18",
            "0x000000000000000000000000b18e4c959bccc8ef86d78dc297fb5efa99550d85"
          ],
          "data": "0x0000000000000000000000000000000000000000000000000000000000000040000000000000000000000000000000000000000000000000000000006848b2ee00000000000000000000000000000000000000000000000000000000000000057374657665000000000000000000000000000000000000000000000000000000",
          "blockHash": "0x531d5d171d2ea6fefbda43b67064c39411a3daba3b5f0d07a0d8e3ecbcfdf907",
          "blockNumber": "0xaa1047",
          "transactionHash": "0x55fa177acd1be207d897af7371f23ba716a90d7110f9cd37ddf8d932d7885d1d",
          "transactionIndex": "0x1",
          "logIndex": "0x8",
          "removed": false
        },
        {
          "address": "0xc8b5d24753588fc7ed134df8870f9d5544a3836e",
          "topics": [
            "0x6d73089fc9804255dcde81b38f2df66c9792c8b7318ebd2673069944a81d0fa7",
            "0x000000000000000000000000869140c91edf43214a3ecedeaf777cc7107ad71a",
            "0x4b496d86d194fbc8bb0542a289ba644317a824ad694564c3e81ae42a44cd419c"
          ],
          "data": "0x",
          "blockHash": "0x531d5d171d2ea6fefbda43b67064c39411a3daba3b5f0d07a0d8e3ecbcfdf907",
          "blockNumber": "0xaa1047",
          "transactionHash": "0x55fa177acd1be207d897af7371f23ba716a90d7110f9cd37ddf8d932d7885d1d",
          "transactionIndex": "0x1",
          "logIndex": "0x9",
          "removed": false
        }
      ],
      "logsBloom": "0x000000420000000000000000000001000000020000000000000000481000000000100000000008080000000000001000000000000000100000000400000200000000020400000000408000080200000000000000040000000000000800000000010080000a0000040000000000000801000100000000000000000010080000000000000c00200004100000000000020000000000000000000010000000000000000000000002000008800200040000008004000000008000800040044000000000000002400400000000000000004000400000001000000000401200000020000000000000000000000000400200000000000010000000002080000000000000",
      "type": "0x2",
      "transactionHash": "0x55fa177acd1be207d897af7371f23ba716a90d7110f9cd37ddf8d932d7885d1d",
      "transactionIndex": "0x1",
      "blockHash": "0x531d5d171d2ea6fefbda43b67064c39411a3daba3b5f0d07a0d8e3ecbcfdf907",
      "blockNumber": "0xaa1047",
      "gasUsed": "0x459f2",
      "effectiveGasPrice": "0x82ad9",
      "from": "0x869140c91edf43214a3ecedeaf777cc7107ad71a",
      "to": "0xc8b5d24753588fc7ed134df8870f9d5544a3836e",
      "contractAddress": null,
      "l1BaseFeeScalar": "0x44d",
      "l1BlobBaseFee": "0x1",
      "l1BlobBaseFeeScalar": "0xa118b",
      "l1Fee": "0x2570b89a5",
      "l1GasPrice": "0x7b27be0d",
      "l1GasUsed": "0x1141"
    }
  ],
  "libraries": [],
  "pending": [],
  "returns": {},
  "timestamp": 1718058868,
  "chain": 84532,
  "commit": "0db35af"
}