{
  "transactions": [
    {
      "hash": "0x94618adfb155d4f3016b5e326c6cbcf95db9044af3ef18c3f6ee5835d59249c3",
      "transactionType": "CALL",
      "contractName": null,
      "contractAddress": "0x01cbeb5afc8e52cc9d45db110fd3d1f8e27bdd80",
      "function": "setDiscountDetails(bytes32,(bool,address,uint256))",
      "arguments": [
        "0x4b496d86d194fbc8bb0542a289ba644317a824ad694564c3e81ae42a44cd419c",
        "(true, 0x10b256745CeA5c71d85982316CC5427E7bE0ed8b, 10000000000000000000)"
      ],
      "transaction": {
        "from": "0x869140c91edf43214a3ecedeaf777cc7107ad71a",
        "to": "0x01cbeb5afc8e52cc9d45db110fd3d1f8e27bdd80",
        "gas": "0x20714",
        "value": "0x0",
        "input": "0x7a8613804b496d86d194fbc8bb0542a289ba644317a824ad694564c3e81ae42a44cd419c000000000000000000000000000000000000000000000000000000000000000100000000000000000000000010b256745cea5c71d85982316cc5427e7be0ed8b0000000000000000000000000000000000000000000000008ac7230489e80000",
        "nonce": "0x22",
        "chainId": "0x14a34"
      },
      "additionalContracts": [],
      "isFixedGasLimit": false
    }
  ],
  "receipts": [
    {
      "status": "0x1",
      "cumulativeGasUsed": "0x31f01",
      "logs": [
        {
          "address": "0x01cbeb5afc8e52cc9d45db110fd3d1f8e27bdd80",
          "topics": [
            "0x0a0b2dd49493e19bed97a285db1086049aa3a050889fef9ae2460452faa8d0b1",
            "0x4b496d86d194fbc8bb0542a289ba644317a824ad694564c3e81ae42a44cd419c"
          ],
          "data": "0x000000000000000000000000000000000000000000000000000000000000000100000000000000000000000010b256745cea5c71d85982316cc5427e7be0ed8b0000000000000000000000000000000000000000000000008ac7230489e80000",
          "blockHash": "0xc1918f5200308a246e61d3649836a0ec607b0d27d70c97ce3ff554ae7d0080ba",
          "blockNumber": "0xaa0b35",
          "transactionHash": "0x94618adfb155d4f3016b5e326c6cbcf95db9044af3ef18c3f6ee5835d59249c3",
          "transactionIndex": "0x2",
          "logIndex": "0x1",
          "removed": false
        }
      ],
      "logsBloom": "0x00000002002000000000000000000000000000000000000000000000080000000000000000000000000000000000000000000000000010000000000000000000000000000000000000040000000000000000000000000000000000000000000001000000000000000000000000000000000000000000000000000000000000000000000000000000000000000000000000000000000000000000000000000000000000000000000000000000000000000000000000000000000000000000000000000000000400000000000000000000000000000000000000000000000000000040000000000000000000000000000000000040000000000000000000000000",
      "type": "0x2",
      "transactionHash": "0x94618adfb155d4f3016b5e326c6cbcf95db9044af3ef18c3f6ee5835d59249c3",
      "transactionIndex": "0x2",
      "blockHash": "0xc1918f5200308a246e61d3649836a0ec607b0d27d70c97ce3ff554ae7d0080ba",
      "blockNumber": "0xaa0b35",
      "gasUsed": "0x177cf",
      "effectiveGasPrice": "0xf4340",
      "from": "0x869140c91edf43214a3ecedeaf777cc7107ad71a",
      "to": "0x01cbeb5afc8e52cc9d45db110fd3d1f8e27bdd80",
      "contractAddress": null,
      "l1BaseFeeScalar": "0x44d",
      "l1BlobBaseFee": "0x1",
      "l1BlobBaseFeeScalar": "0xa118b",
      "l1Fee": "0x5f901ddc",
      "l1GasPrice": "0x2c16cd9c",
      "l1GasUsed": "0x7b0"
    }
  ],
  "libraries": [],
  "pending": [],
  "returns": {},
  "timestamp": 1718056271,
  "chain": 84532,
  "commit": "0db35af"
}