{
  "transactions": [
    {
      "hash": "0x73c0917f0183d7d57d3d1a5d5cad254d67ba2d541bd6cf227baf8ebe5217f1a7",
      "transactionType": "CALL",
      "contractName": null,
      "contractAddress": "0x1d3c6cf6737921c798f07cd6469a72f173166657",
      "function": "setSubnodeOwner(bytes32,bytes32,address)",
      "arguments": [
        "0x0000000000000000000000000000000000000000000000000000000000000000",
        "0x4f5b812789fc606be1b3b16908db13fc7a9adf7ca72641f84d75b47069d3d7f0",
        "0x869140c91eDF43214a3EcEdEAF777cc7107aD71a"
      ],
      "transaction": {
        "from": "0x869140c91edf43214a3ecedeaf777cc7107ad71a",
        "to": "0x1d3c6cf6737921c798f07cd6469a72f173166657",
        "gas": "0x1182b",
        "value": "0x0",
        "input": "0x06ab592300000000000000000000000000000000000000000000000000000000000000004f5b812789fc606be1b3b16908db13fc7a9adf7ca72641f84d75b47069d3d7f0000000000000000000000000869140c91edf43214a3ecedeaf777cc7107ad71a",
        "nonce": "0x1b",
        "chainId": "0x14a34"
      },
      "additionalContracts": [],
      "isFixedGasLimit": false
    },
    {
      "hash": "0x3c14324523b0e5dd2dd840bb775b52daef23e3babe181d09f0882c4be425a3b2",
      "transactionType": "CALL",
      "contractName": null,
      "contractAddress": "0x1d3c6cf6737921c798f07cd6469a72f173166657",
      "function": "setSubnodeOwner(bytes32,bytes32,address)",
      "arguments": [
        "0x93cdeb708b7545dc668eb9280176169d1c33cfd8ed6f04690a0bcc88a93fc4ae",
        "0x7a923b0d5aaeffd5b72c88e6d0ee73d2fad093c4e7ac193b7375942cd4ed0b42",
        "0x0Cff05B4e1DF41fB5423448d4fDC81eB9Bef21df"
      ],
      "transaction": {
        "from": "0x869140c91edf43214a3ecedeaf777cc7107ad71a",
        "to": "0x1d3c6cf6737921c798f07cd6469a72f173166657",
        "gas": "0x11a5d",
        "value": "0x0",
        "input": "0x06ab592393cdeb708b7545dc668eb9280176169d1c33cfd8ed6f04690a0bcc88a93fc4ae7a923b0d5aaeffd5b72c88e6d0ee73d2fad093c4e7ac193b7375942cd4ed0b420000000000000000000000000cff05b4e1df41fb5423448d4fdc81eb9bef21df",
        "nonce": "0x1c",
        "chainId": "0x14a34"
      },
      "additionalContracts": [],
      "isFixedGasLimit": false
    }
  ],
  "receipts": [
    {
      "status": "0x1",
      "cumulativeGasUsed": "0x1100ce",
      "logs": [
        {
          "address": "0x1d3c6cf6737921c798f07cd6469a72f173166657",
          "topics": [
            "0xce0457fe73731f824cc272376169235128c118b49d344817417c6d108d155e82",
            "0x0000000000000000000000000000000000000000000000000000000000000000",
            "0x4f5b812789fc606be1b3b16908db13fc7a9adf7ca72641f84d75b47069d3d7f0"
          ],
          "data": "0x000000000000000000000000869140c91edf43214a3ecedeaf777cc7107ad71a",
          "blockHash": "0x59b8529df8c6a806b2ad3a6a7d89ea5053ad934fe92281ca81a11c2d6b8ed99b",
          "blockNumber": "0xa9f5c2",
          "transactionHash": "0x73c0917f0183d7d57d3d1a5d5cad254d67ba2d541bd6cf227baf8ebe5217f1a7",
          "transactionIndex": "0x8",
          "logIndex": "0xa",
          "removed": false
        }
      ],
      "logsBloom": "0x00000000100000000000000000000000000000000000000000000000000000000000000000000000000000000000400000000000000010000000000000000000000000040000000000000000000000000000000000000000000000000000000000000000020000000000000000000800000000000000000000000000000000000000000000000000100002000000000000000000000000000000000000000000000000000000000000800000000000000000000000000000000000040000000000000000000000000000000000004000000000000000000000000000000020000000000000000000000000000000000000000000000000000000000000000000",
      "type": "0x2",
      "transactionHash": "0x73c0917f0183d7d57d3d1a5d5cad254d67ba2d541bd6cf227baf8ebe5217f1a7",
      "transactionIndex": "0x8",
      "blockHash": "0x59b8529df8c6a806b2ad3a6a7d89ea5053ad934fe92281ca81a11c2d6b8ed99b",
      "blockNumber": "0xa9f5c2",
      "gasUsed": "0xbf92",
      "effectiveGasPrice": "0x187c1",
      "from": "0x869140c91edf43214a3ecedeaf777cc7107ad71a",
      "to": "0x1d3c6cf6737921c798f07cd6469a72f173166657",
      "contractAddress": null,
      "l1BaseFeeScalar": "0x44d",
      "l1BlobBaseFee": "0xd",
      "l1BlobBaseFeeScalar": "0xa118b",
      "l1Fee": "0x282da505f",
      "l1GasPrice": "0x14f58542a",
      "l1GasUsed": "0x6cd"
    },
    {
      "status": "0x1",
      "cumulativeGasUsed": "0x11c1e0",
      "logs": [
        {
          "address": "0x1d3c6cf6737921c798f07cd6469a72f173166657",
          "topics": [
            "0xce0457fe73731f824cc272376169235128c118b49d344817417c6d108d155e82",
            "0x93cdeb708b7545dc668eb9280176169d1c33cfd8ed6f04690a0bcc88a93fc4ae",
            "0x7a923b0d5aaeffd5b72c88e6d0ee73d2fad093c4e7ac193b7375942cd4ed0b42"
          ],
          "data": "0x0000000000000000000000000cff05b4e1df41fb5423448d4fdc81eb9bef21df",
          "blockHash": "0x59b8529df8c6a806b2ad3a6a7d89ea5053ad934fe92281ca81a11c2d6b8ed99b",
          "blockNumber": "0xa9f5c2",
          "transactionHash": "0x3c14324523b0e5dd2dd840bb775b52daef23e3babe181d09f0882c4be425a3b2",
          "transactionIndex": "0x9",
          "logIndex": "0xb",
          "removed": false
        }
      ],
      "logsBloom": "0x00000000000000000000000000100000000000000000000000000000000000000000000000000000000000000000000000000000000010000000000000000000000000040000000000000000000000000000000000000000000000000000000000000400000000000000000000000000000000004000000000000000000000000000000000000000100000000000000004000000000000000000000000000000000000000000000000800000000000000000000000000000000000040000000000004000000000000000000000004000000000000000000000000000000000000000000000000000000000000000000000000000000000000000000000000000",
      "type": "0x2",
      "transactionHash": "0x3c14324523b0e5dd2dd840bb775b52daef23e3babe181d09f0882c4be425a3b2",
      "transactionIndex": "0x9",
      "blockHash": "0x59b8529df8c6a806b2ad3a6a7d89ea5053ad934fe92281ca81a11c2d6b8ed99b",
      "blockNumber": "0xa9f5c2",
      "gasUsed": "0xc112",
      "effectiveGasPrice": "0x187c1",
      "from": "0x869140c91edf43214a3ecedeaf777cc7107ad71a",
      "to": "0x1d3c6cf6737921c798f07cd6469a72f173166657",
      "contractAddress": null,
      "l1BaseFeeScalar": "0x44d",
      "l1BlobBaseFee": "0xd",
      "l1BlobBaseFeeScalar": "0xa118b",
      "l1Fee": "0x317199712",
      "l1GasPrice": "0x14f58542a",
      "l1GasUsed": "0x85e"
    }
  ],
  "libraries": [],
  "pending": [],
  "returns": {},
  "timestamp": 1718045289,
  "chain": 84532,
  "commit": "0db35af"
}