{
  "transactions": [
    {
      "hash": "0x731c85e8c7e344d9ad06f537c0ef8b7554529afc2a986e0369c9bf31d259004d",
      "transactionType": "CREATE",
      "contractName": "ReverseRegistrar",
      "contractAddress": "0x954606b6b6b48cd33a0bac7f3145ca98f7979871",
      "function": null,
      "arguments": [
        "0x1d3C6Cf6737921c798f07Cd6469A72f173166657",
        "0x869140c91eDF43214a3EcEdEAF777cc7107aD71a"
      ],
      "transaction": {
        "from": "0x869140c91edf43214a3ecedeaf777cc7107ad71a",
        "gas": "0xea1d6",
        "value": "0x0",
        "input": "0x60a060405234801561001057600080fd5b50604051610ce4380380610ce483398101604081905261002f9161009c565b6100388161004a565b506001600160a01b03166080526100d6565b6001600160a01b0316638b78c6d8198190558060007f8be0079c531659141344cd1fd0a4f28419497f9722a3daafe3b4186f6b6457e08180a35b50565b6001600160a01b038116811461008457600080fd5b600080604083850312156100af57600080fd5b82516100ba81610087565b60208401519092506100cb81610087565b809150509250929050565b608051610be56100ff60003960008181610167015281816103df01526105780152610be56000f3fe6080604052600436106100f35760003560e01c8063828eab0e1161008a578063c66485b211610059578063c66485b21461026a578063f04e283e1461028a578063f2fde38b1461029d578063fee81cf4146102b057600080fd5b8063828eab0e146101f15780638da5cb5b14610211578063bffbe61c1461022a578063c47f00271461024a57600080fd5b806354d1f13d116100c657806354d1f13d146101a157806365669631146101a9578063715018a6146101c95780637a806d6b146101d157600080fd5b80630f5a5466146100f85780631e83409a1461012b578063256929621461014b5780633f15457f14610155575b600080fd5b34801561010457600080fd5b50610118610113366004610923565b6102e3565b6040519081526020015b60405180910390f35b34801561013757600080fd5b5061011861014636600461095c565b6102f7565b610153610317565b005b34801561016157600080fd5b506101897f000000000000000000000000000000000000000000000000000000000000000081565b6040516001600160a01b039091168152602001610122565b610153610367565b3480156101b557600080fd5b506101186101c4366004610979565b6103a3565b6101536105df565b3480156101dd57600080fd5b506101186101ec366004610a67565b6105f3565b3480156101fd57600080fd5b50600054610189906001600160a01b031681565b34801561021d57600080fd5b50638b78c6d81954610189565b34801561023657600080fd5b5061011861024536600461095c565b61066e565b34801561025657600080fd5b50610118610265366004610adc565b6106c9565b34801561027657600080fd5b5061015361028536600461095c565b6106e4565b61015361029836600461095c565b61075b565b6101536102ab36600461095c565b61079b565b3480156102bc57600080fd5b506101186102cb36600461095c565b63389a75e1600c908152600091909152602090205490565b60006102f03384846103a3565b9392505050565b6000805461031190339084906001600160a01b03166103a3565b92915050565b60006202a30067ffffffffffffffff164201905063389a75e1600c5233600052806020600c2055337fdbf36a107da19e49527a7176a1babf963b4b0ff8cde35ee35d6cd8f1f9ac7e1d600080a250565b63389a75e1600c523360005260006020600c2055337ffa7b8eab7da67f412cc9575ed43464468f9bfbae89d1675917346ca6d8fe3c92600080a2565b6000836001600160a01b038116331480159061044c575060405163e985e9c560e01b81526001600160a01b0382811660048301523360248301527f0000000000000000000000000000000000000000000000000000000000000000169063e985e9c590604401602060405180830381865afa158015610426573d6000803e3d6000fd5b505050506040513d601f19601f8201168201806040525081019061044a9190610b19565b155b801561045e575061045c816107c2565b155b156104915760405163c55ddc9760e01b81526001600160a01b038216600482015233602482015260440160405180910390fd5b600061049c8661084f565b604080517f91d1777781884d03a6757a803996e38de2a42967fb37eeaca72729271025a9e2602080830191909152818301849052825180830384018152606090920192839052815191012091925081906001600160a01b038916907f6ada868dd3058cf77a48a74489fd7963688e5464b2b0fa957ace976243270e9290600090a36040516305ef2c7f60e41b81527f91d1777781884d03a6757a803996e38de2a42967fb37eeaca72729271025a9e26004820152602481018390526001600160a01b0387811660448301528681166064830152600060848301527f00000000000000000000000000000000000000000000000000000000000000001690635ef2c7f09060a401600060405180830381600087803b1580156105bc57600080fd5b505af11580156105d0573d6000803e3d6000fd5b50929998505050505050505050565b6105e76108b5565b6105f160006108d0565b565b6000806106018686866103a3565b604051637737221360e01b81529091506001600160a01b038516906377372213906106329084908790600401610b3b565b600060405180830381600087803b15801561064c57600080fd5b505af1158015610660573d6000803e3d6000fd5b509298975050505050505050565b60007f91d1777781884d03a6757a803996e38de2a42967fb37eeaca72729271025a9e261069a8361084f565b604080516020810193909352820152606001604051602081830303815290604052805190602001209050919050565b6000805461031190339081906001600160a01b0316856105f3565b6106ec6108b5565b6001600160a01b0381166107135760405163ddbadd5f60e01b815260040160405180910390fd5b600080546001600160a01b0319166001600160a01b038316908117825560405190917feae17a84d9eb83d8c8eb317f9e7d64857bc363fa51674d996c023f4340c577cf91a250565b6107636108b5565b63389a75e1600c52806000526020600c20805442111561078b57636f5e88186000526004601cfd5b60009055610798816108d0565b50565b6107a36108b5565b8060601b6107b957637448fbae6000526004601cfd5b610798816108d0565b6000813b63ffffffff166107d857506000919050565b816001600160a01b0316638da5cb5b6040518163ffffffff1660e01b8152600401602060405180830381865afa925050508015610832575060408051601f3d908101601f1916820190925261082f91810190610b92565b60015b61083e57506000919050565b6001600160a01b0316331492915050565b600060285b80156108a957600019016f181899199a1a9b1b9c1cb0b131b232b360811b600f84161a8153601090920491600019016f181899199a1a9b1b9c1cb0b131b232b360811b600f84161a8153601083049250610854565b50506028600020919050565b638b78c6d8195433146105f1576382b429006000526004601cfd5b638b78c6d81980546001600160a01b039092169182907f8be0079c531659141344cd1fd0a4f28419497f9722a3daafe3b4186f6b6457e0600080a355565b6001600160a01b038116811461079857600080fd5b6000806040838503121561093657600080fd5b82356109418161090e565b915060208301356109518161090e565b809150509250929050565b60006020828403121561096e57600080fd5b81356102f08161090e565b60008060006060848603121561098e57600080fd5b83356109998161090e565b925060208401356109a98161090e565b915060408401356109b98161090e565b809150509250925092565b634e487b7160e01b600052604160045260246000fd5b600082601f8301126109eb57600080fd5b813567ffffffffffffffff80821115610a0657610a066109c4565b604051601f8301601f19908116603f01168101908282118183101715610a2e57610a2e6109c4565b81604052838152866020858801011115610a4757600080fd5b836020870160208301376000602085830101528094505050505092915050565b60008060008060808587031215610a7d57600080fd5b8435610a888161090e565b93506020850135610a988161090e565b92506040850135610aa88161090e565b9150606085013567ffffffffffffffff811115610ac457600080fd5b610ad0878288016109da565b91505092959194509250565b600060208284031215610aee57600080fd5b813567ffffffffffffffff811115610b0557600080fd5b610b11848285016109da565b949350505050565b600060208284031215610b2b57600080fd5b815180151581146102f057600080fd5b8281526000602060406020840152835180604085015260005b81811015610b7057858101830151858201606001528201610b54565b506000606082860101526060601f19601f830116850101925050509392505050565b600060208284031215610ba457600080fd5b81516102f08161090e56fea264697066735822122064cd8a2f689dbff340e588b075a61147109057e6a240028920abd3d67f58f5f164736f6c634300081700330000000000000000000000001d3c6cf6737921c798f07cd6469a72f173166657000000000000000000000000869140c91edf43214a3ecedeaf777cc7107ad71a",
        "nonce": "0x12",
        "chainId": "0x14a34"
      },
      "additionalContracts": [],
      "isFixedGasLimit": false
    },
    {
      "hash": "0x9de2ae32f3ba898217f378faad9887eb8ce6084b03bfd7d42419d2c9fdca05b8",
      "transactionType": "CALL",
      "contractName": null,
      "contractAddress": "0x1d3c6cf6737921c798f07cd6469a72f173166657",
      "function": "setSubnodeOwner(bytes32,bytes32,address)",
      "arguments": [
        "0x0000000000000000000000000000000000000000000000000000000000000000",
        "0xdec08c9dbbdd0890e300eb5062089b2d4b1c40e3673bbccb5423f7b37dcf9a9c",
        "0x869140c91eDF43214a3EcEdEAF777cc7107aD71a"
      ],
      "transaction": {
        "from": "0x869140c91edf43214a3ecedeaf777cc7107ad71a",
        "to": "0x1d3c6cf6737921c798f07cd6469a72f173166657",
        "gas": "0xa66a",
        "value": "0x0",
        "input": "0x06ab59230000000000000000000000000000000000000000000000000000000000000000dec08c9dbbdd0890e300eb5062089b2d4b1c40e3673bbccb5423f7b37dcf9a9c000000000000000000000000869140c91edf43214a3ecedeaf777cc7107ad71a",
        "nonce": "0x13",
        "chainId": "0x14a34"
      },
      "additionalContracts": [],
      "isFixedGasLimit": false
    },
    {
      "hash": "0x63d5324c4500131f56a27dacc7f5976eded00b43d0b3d92b7b05eae564148c7e",
      "transactionType": "CALL",
      "contractName": null,
      "contractAddress": "0x1d3c6cf6737921c798f07cd6469a72f173166657",
      "function": "setSubnodeOwner(bytes32,bytes32,address)",
      "arguments": [
        "0xa097f6721ce401e757d1223a763fef49b8b5f90bb18567ddb86fd205dff71d34",
        "0xe5e14487b78f85faa6e1808e89246cf57dd34831548ff2e6097380d98db2504a",
        "0x954606B6B6b48cD33A0BAC7f3145ca98f7979871"
      ],
      "transaction": {
        "from": "0x869140c91edf43214a3ecedeaf777cc7107ad71a",
        "to": "0x1d3c6cf6737921c798f07cd6469a72f173166657",
        "gas": "0xae69",
        "value": "0x0",
        "input": "0x06ab5923a097f6721ce401e757d1223a763fef49b8b5f90bb18567ddb86fd205dff71d34e5e14487b78f85faa6e1808e89246cf57dd34831548ff2e6097380d98db2504a000000000000000000000000954606b6b6b48cd33a0bac7f3145ca98f7979871",
        "nonce": "0x14",
        "chainId": "0x14a34"
      },
      "additionalContracts": [],
      "isFixedGasLimit": false
    }
  ],
  "receipts": [
    {
      "status": "0x1",
      "cumulativeGasUsed": "0x1e8a5a",
      "logs": [
        {
          "address": "0x954606b6b6b48cd33a0bac7f3145ca98f7979871",
          "topics": [
            "0x8be0079c531659141344cd1fd0a4f28419497f9722a3daafe3b4186f6b6457e0",
            "0x0000000000000000000000000000000000000000000000000000000000000000",
            "0x000000000000000000000000869140c91edf43214a3ecedeaf777cc7107ad71a"
          ],
          "data": "0x",
          "blockHash": "0xd3e17968b1ad86b24054606214c82e997d215ff454e8cbb9e70cd78bbfff796a",
          "blockNumber": "0xa9f022",
          "transactionHash": "0x731c85e8c7e344d9ad06f537c0ef8b7554529afc2a986e0369c9bf31d259004d",
          "transactionIndex": "0xc",
          "logIndex": "0x11",
          "removed": false
        }
      ],
      "logsBloom": "0x00000000000000000000000000000000000000000000000000800008000000000000000000000000000000000000000000000000000000000000000000000000000000000000000000000000000000000001000000000000000000000000000000000000020000000000000000000800000000000000000000000000000000400000000000200000000040000000000000000000000000000000000000000000000000000000000000000000000000000000000000000000000000000200000000000000000000000000000000000000000000000000000000000000000020000000000000000000000000000000000000000000000000012000000000000000",
      "type": "0x2",
      "transactionHash": "0x731c85e8c7e344d9ad06f537c0ef8b7554529afc2a986e0369c9bf31d259004d",
      "transactionIndex": "0xc",
      "blockHash": "0xd3e17968b1ad86b24054606214c82e997d215ff454e8cbb9e70cd78bbfff796a",
      "blockNumber": "0xa9f022",
      "gasUsed": "0xb423e",
      "effectiveGasPrice": "0xf4370",
      "from": "0x869140c91edf43214a3ecedeaf777cc7107ad71a",
      "to": null,
      "contractAddress": "0x954606b6b6b48cd33a0bac7f3145ca98f7979871",
      "l1BaseFeeScalar": "0x44d",
      "l1BlobBaseFee": "0x1",
      "l1BlobBaseFeeScalar": "0xa118b",
      "l1Fee": "0x56d3118011",
      "l1GasPrice": "0x25f7547da",
      "l1GasUsed": "0x81d1"
    },
    {
      "status": "0x1",
      "cumulativeGasUsed": "0x1efc24",
      "logs": [
        {
          "address": "0x1d3c6cf6737921c798f07cd6469a72f173166657",
          "topics": [
            "0xce0457fe73731f824cc272376169235128c118b49d344817417c6d108d155e82",
            "0x0000000000000000000000000000000000000000000000000000000000000000",
            "0xdec08c9dbbdd0890e300eb5062089b2d4b1c40e3673bbccb5423f7b37dcf9a9c"
          ],
          "data": "0x000000000000000000000000869140c91edf43214a3ecedeaf777cc7107ad71a",
          "blockHash": "0xd3e17968b1ad86b24054606214c82e997d215ff454e8cbb9e70cd78bbfff796a",
          "blockNumber": "0xa9f022",
          "transactionHash": "0x9de2ae32f3ba898217f378faad9887eb8ce6084b03bfd7d42419d2c9fdca05b8",
          "transactionIndex": "0xd",
          "logIndex": "0x12",
          "removed": false
        }
      ],
      "logsBloom": "0x00000000000000000000000000000000000000000000000000000000000000400000000000000000000000000000000000000000000010000000000000000000000000040000000000000000000000000000000000000000000000000000000000000000020000000000000000000800000000000000000000000000000000000000000000000002100000000000000000000000000000000000000000000000000000000000000000800000000000000000000000000000000000040000000000000000000000000000000000004000000000000000000000000000000020000000000000000000000000000000000000000000000000000000000000000400",
      "type": "0x2",
      "transactionHash": "0x9de2ae32f3ba898217f378faad9887eb8ce6084b03bfd7d42419d2c9fdca05b8",
      "transactionIndex": "0xd",
      "blockHash": "0xd3e17968b1ad86b24054606214c82e997d215ff454e8cbb9e70cd78bbfff796a",
      "blockNumber": "0xa9f022",
      "gasUsed": "0x71ca",
      "effectiveGasPrice": "0xf4370",
      "from": "0x869140c91edf43214a3ecedeaf777cc7107ad71a",
      "to": "0x1d3c6cf6737921c798f07cd6469a72f173166657",
      "contractAddress": null,
      "l1BaseFeeScalar": "0x44d",
      "l1BlobBaseFee": "0x1",
      "l1BlobBaseFeeScalar": "0xa118b",
      "l1Fee": "0x4838a06c0",
      "l1GasPrice": "0x25f7547da",
      "l1GasUsed": "0x6bf"
    },
    {
      "status": "0x1",
      "cumulativeGasUsed": "0x1f7a6a",
      "logs": [
        {
          "address": "0x1d3c6cf6737921c798f07cd6469a72f173166657",
          "topics": [
            "0xce0457fe73731f824cc272376169235128c118b49d344817417c6d108d155e82",
            "0xa097f6721ce401e757d1223a763fef49b8b5f90bb18567ddb86fd205dff71d34",
            "0xe5e14487b78f85faa6e1808e89246cf57dd34831548ff2e6097380d98db2504a"
          ],
          "data": "0x000000000000000000000000954606b6b6b48cd33a0bac7f3145ca98f7979871",
          "blockHash": "0xd3e17968b1ad86b24054606214c82e997d215ff454e8cbb9e70cd78bbfff796a",
          "blockNumber": "0xa9f022",
          "transactionHash": "0x63d5324c4500131f56a27dacc7f5976eded00b43d0b3d92b7b05eae564148c7e",
          "transactionIndex": "0xe",
          "logIndex": "0x13",
          "removed": false
        }
      ],
      "logsBloom": "0x00000000000000000000000000000000000000000000000000800000000000000000000000000000000000000000000000000000000010000000000000000000000000040000000000000000000000000000000000000000000000000000000000000000000800000000000000000000000000000001000000000000000000000000000000000000100000000000000000000000000000000000000000000000000000000000000000800000000000000000000000000000000000040000000000000000000000000000000000004000001000000000000000000000000000000000000000000040000000000000000000000000000000000000000010000000",
      "type": "0x2",
      "transactionHash": "0x63d5324c4500131f56a27dacc7f5976eded00b43d0b3d92b7b05eae564148c7e",
      "transactionIndex": "0xe",
      "blockHash": "0xd3e17968b1ad86b24054606214c82e997d215ff454e8cbb9e70cd78bbfff796a",
      "blockNumber": "0xa9f022",
      "gasUsed": "0x7e46",
      "effectiveGasPrice": "0xf4370",
      "from": "0x869140c91edf43214a3ecedeaf777cc7107ad71a",
      "to": "0x1d3c6cf6737921c798f07cd6469a72f173166657",
      "contractAddress": null,
      "l1BaseFeeScalar": "0x44d",
      "l1BlobBaseFee": "0x1",
      "l1BlobBaseFeeScalar": "0xa118b",
      "l1Fee": "0x590148fcd",
      "l1GasPrice": "0x25f7547da",
      "l1GasUsed": "0x851"
    }
  ],
  "libraries": [],
  "pending": [],
  "returns": {},
  "timestamp": 1718042409,
  "chain": 84532,
  "commit": "62074a4"
}