{
  "transactions": [
    {
      "hash": "0xc8f015b64e11d06f594bb1623b0d4f0cd6b429ae1232a226a49d7aafeb83dd6c",
      "transactionType": "CREATE2",
      "contractName": "Sha3",
      "contractAddress": "0x57fe250fd1c899e74490a95a2ad72ca1baa7e927",
      "function": null,
      "arguments": null,
      "transaction": {
        "from": "0x869140c91edf43214a3ecedeaf777cc7107ad71a",
        "to": "0x4e59b44847b379578588920ca78fbf26c0b4956c",
        "gas": "0x273e3",
        "input": "0x000000000000000000000000000000000000000000000000000000000000000061012161003a600b82828239805160001a60731461002d57634e487b7160e01b600052600060045260246000fd5b30600052607381538281f3fe730000000000000000000000000000000000000000301460806040526004361060335760003560e01c80631851eb55146038575b600080fd5b6047604336600460bd565b6059565b60405190815260200160405180910390f35b600060285b801560b157600019016f181899199a1a9b1b9c1cb0b131b232b360811b600f84161a8153601090920491600019016f181899199a1a9b1b9c1cb0b131b232b360811b600f84161a8153601083049250605e565b50506028600020919050565b60006020828403121560ce57600080fd5b81356001600160a01b038116811460e457600080fd5b939250505056fea26469706673582212206c77a4b3b464b111d85ffe9010835170ccb8b38a848b4590b76c1b646b4825ec64736f6c63430008170033",
        "nonce": "0xe",
        "chainId": "0x14a34"
      },
      "additionalContracts": [],
      "isFixedGasLimit": false
    },
    {
      "hash": "0xa1c2f9e18b20c6b65ba6f25a6fdaf9c2753d88c3dd491c1df4f05270cca597d9",
      "transactionType": "CREATE",
      "contractName": "ReverseRegistrar",
      "contractAddress": "0x6864841f1cd70349f23126982c140676268612f9",
      "function": null,
      "arguments": [
        "0x1d3C6Cf6737921c798f07Cd6469A72f173166657",
        "0x869140c91eDF43214a3EcEdEAF777cc7107aD71a"
      ],
      "transaction": {
        "from": "0x869140c91edf43214a3ecedeaf777cc7107ad71a",
        "gas": "0xf4cec",
        "value": "0x0",
        "input": "0x60a060405234801561001057600080fd5b50604051610d80380380610d8083398101604081905261002f9161009c565b6100388161004a565b506001600160a01b03166080526100d6565b6001600160a01b0316638b78c6d8198190558060007f8be0079c531659141344cd1fd0a4f28419497f9722a3daafe3b4186f6b6457e08180a35b50565b6001600160a01b038116811461008457600080fd5b600080604083850312156100af57600080fd5b82516100ba81610087565b60208401519092506100cb81610087565b809150509250929050565b608051610c816100ff60003960008181610167015281816103df01526105ec0152610c816000f3fe6080604052600436106100f35760003560e01c8063828eab0e1161008a578063c66485b211610059578063c66485b21461026a578063f04e283e1461028a578063f2fde38b1461029d578063fee81cf4146102b057600080fd5b8063828eab0e146101f15780638da5cb5b14610211578063bffbe61c1461022a578063c47f00271461024a57600080fd5b806354d1f13d116100c657806354d1f13d146101a157806365669631146101a9578063715018a6146101c95780637a806d6b146101d157600080fd5b80630f5a5466146100f85780631e83409a1461012b578063256929621461014b5780633f15457f14610155575b600080fd5b34801561010457600080fd5b506101186101133660046109a6565b6102e3565b6040519081526020015b60405180910390f35b34801561013757600080fd5b506101186101463660046109df565b6102f7565b610153610317565b005b34801561016157600080fd5b506101897f000000000000000000000000000000000000000000000000000000000000000081565b6040516001600160a01b039091168152602001610122565b610153610367565b3480156101b557600080fd5b506101186101c43660046109fc565b6103a3565b610153610653565b3480156101dd57600080fd5b506101186101ec366004610aea565b610667565b3480156101fd57600080fd5b50600054610189906001600160a01b031681565b34801561021d57600080fd5b50638b78c6d81954610189565b34801561023657600080fd5b506101186102453660046109df565b6106e2565b34801561025657600080fd5b50610118610265366004610b5f565b6107b2565b34801561027657600080fd5b506101536102853660046109df565b6107cd565b6101536102983660046109df565b610844565b6101536102ab3660046109df565b610884565b3480156102bc57600080fd5b506101186102cb3660046109df565b63389a75e1600c908152600091909152602090205490565b60006102f03384846103a3565b9392505050565b6000805461031190339084906001600160a01b03166103a3565b92915050565b60006202a30067ffffffffffffffff164201905063389a75e1600c5233600052806020600c2055337fdbf36a107da19e49527a7176a1babf963b4b0ff8cde35ee35d6cd8f1f9ac7e1d600080a250565b63389a75e1600c523360005260006020600c2055337ffa7b8eab7da67f412cc9575ed43464468f9bfbae89d1675917346ca6d8fe3c92600080a2565b6000836001600160a01b038116331480159061044c575060405163e985e9c560e01b81526001600160a01b0382811660048301523360248301527f0000000000000000000000000000000000000000000000000000000000000000169063e985e9c590604401602060405180830381865afa158015610426573d6000803e3d6000fd5b505050506040513d601f19601f8201168201806040525081019061044a9190610b9c565b155b801561045e575061045c816108ab565b155b156104915760405163c55ddc9760e01b81526001600160a01b038216600482015233602482015260440160405180910390fd5b604051631851eb5560e01b81526001600160a01b03861660048201526000907357fe250fd1c899e74490a95a2ad72ca1baa7e92790631851eb5590602401602060405180830381865af41580156104ec573d6000803e3d6000fd5b505050506040513d601f19601f820116820180604052508101906105109190610bbe565b604080517f91d1777781884d03a6757a803996e38de2a42967fb37eeaca72729271025a9e2602080830191909152818301849052825180830384018152606090920192839052815191012091925081906001600160a01b038916907f6ada868dd3058cf77a48a74489fd7963688e5464b2b0fa957ace976243270e9290600090a36040516305ef2c7f60e41b81527f91d1777781884d03a6757a803996e38de2a42967fb37eeaca72729271025a9e26004820152602481018390526001600160a01b0387811660448301528681166064830152600060848301527f00000000000000000000000000000000000000000000000000000000000000001690635ef2c7f09060a401600060405180830381600087803b15801561063057600080fd5b505af1158015610644573d6000803e3d6000fd5b50929998505050505050505050565b61065b610938565b6106656000610953565b565b6000806106758686866103a3565b604051637737221360e01b81529091506001600160a01b038516906377372213906106a69084908790600401610bd7565b600060405180830381600087803b1580156106c057600080fd5b505af11580156106d4573d6000803e3d6000fd5b509298975050505050505050565b604051631851eb5560e01b81526001600160a01b03821660048201526000907f91d1777781884d03a6757a803996e38de2a42967fb37eeaca72729271025a9e2907357fe250fd1c899e74490a95a2ad72ca1baa7e92790631851eb5590602401602060405180830381865af415801561075f573d6000803e3d6000fd5b505050506040513d601f19601f820116820180604052508101906107839190610bbe565b604080516020810193909352820152606001604051602081830303815290604052805190602001209050919050565b6000805461031190339081906001600160a01b031685610667565b6107d5610938565b6001600160a01b0381166107fc5760405163ddbadd5f60e01b815260040160405180910390fd5b600080546001600160a01b0319166001600160a01b038316908117825560405190917feae17a84d9eb83d8c8eb317f9e7d64857bc363fa51674d996c023f4340c577cf91a250565b61084c610938565b63389a75e1600c52806000526020600c20805442111561087457636f5e88186000526004601cfd5b6000905561088181610953565b50565b61088c610938565b8060601b6108a257637448fbae6000526004601cfd5b61088181610953565b6000813b63ffffffff166108c157506000919050565b816001600160a01b0316638da5cb5b6040518163ffffffff1660e01b8152600401602060405180830381865afa92505050801561091b575060408051601f3d908101601f1916820190925261091891810190610c2e565b60015b61092757506000919050565b6001600160a01b0316331492915050565b638b78c6d819543314610665576382b429006000526004601cfd5b638b78c6d81980546001600160a01b039092169182907f8be0079c531659141344cd1fd0a4f28419497f9722a3daafe3b4186f6b6457e0600080a355565b6001600160a01b038116811461088157600080fd5b600080604083850312156109b957600080fd5b82356109c481610991565b915060208301356109d481610991565b809150509250929050565b6000602082840312156109f157600080fd5b81356102f081610991565b600080600060608486031215610a1157600080fd5b8335610a1c81610991565b92506020840135610a2c81610991565b91506040840135610a3c81610991565b809150509250925092565b634e487b7160e01b600052604160045260246000fd5b600082601f830112610a6e57600080fd5b813567ffffffffffffffff80821115610a8957610a89610a47565b604051601f8301601f19908116603f01168101908282118183101715610ab157610ab1610a47565b81604052838152866020858801011115610aca57600080fd5b836020870160208301376000602085830101528094505050505092915050565b60008060008060808587031215610b0057600080fd5b8435610b0b81610991565b93506020850135610b1b81610991565b92506040850135610b2b81610991565b9150606085013567ffffffffffffffff811115610b4757600080fd5b610b5387828801610a5d565b91505092959194509250565b600060208284031215610b7157600080fd5b813567ffffffffffffffff811115610b8857600080fd5b610b9484828501610a5d565b949350505050565b600060208284031215610bae57600080fd5b815180151581146102f057600080fd5b600060208284031215610bd057600080fd5b5051919050565b8281526000602060406020840152835180604085015260005b81811015610c0c57858101830151858201606001528201610bf0565b506000606082860101526060601f19601f830116850101925050509392505050565b600060208284031215610c4057600080fd5b81516102f08161099156fea264697066735822122005cb2b26ac4c14705a334b48a553212165dccf63e9464e34297ce3fc842561cc64736f6c634300081700330000000000000000000000001d3c6cf6737921c798f07cd6469a72f173166657000000000000000000000000869140c91edf43214a3ecedeaf777cc7107ad71a",
        "nonce": "0xf",
        "chainId": "0x14a34"
      },
      "additionalContracts": [],
      "isFixedGasLimit": false
    },
    {
      "hash": "0xad1ead723232678160e2d0963b5a798160cd9b30ef858b3c2d1da9f11383c02b",
      "transactionType": "CALL",
      "contractName": null,
      "contractAddress": "0x1d3c6cf6737921c798f07cd6469a72f173166657",
      "function": "setSubnodeOwner(bytes32,bytes32,address)",
      "arguments": [
        "0x0000000000000000000000000000000000000000000000000000000000000000",
        "0xdec08c9dbbdd0890e300eb5062089b2d4b1c40e3673bbccb5423f7b37dcf9a9c",
        "0x869140c91eDF43214a3EcEdEAF777cc7107aD71a"
      ],
      "transaction": {
        "from": "0x869140c91edf43214a3ecedeaf777cc7107ad71a",
        "to": "0x1d3c6cf6737921c798f07cd6469a72f173166657",
        "gas": "0x1088a",
        "value": "0x0",
        "input": "0x06ab59230000000000000000000000000000000000000000000000000000000000000000dec08c9dbbdd0890e300eb5062089b2d4b1c40e3673bbccb5423f7b37dcf9a9c000000000000000000000000869140c91edf43214a3ecedeaf777cc7107ad71a",
        "nonce": "0x10",
        "chainId": "0x14a34"
      },
      "additionalContracts": [],
      "isFixedGasLimit": false
    },
    {
      "hash": "0x5dc728dc25a7f9257aa122880400b9760fbf61f115fa49b3b9c98d9c6cb8fec7",
      "transactionType": "CALL",
      "contractName": null,
      "contractAddress": "0x1d3c6cf6737921c798f07cd6469a72f173166657",
      "function": "setSubnodeOwner(bytes32,bytes32,address)",
      "arguments": [
        "0xa097f6721ce401e757d1223a763fef49b8b5f90bb18567ddb86fd205dff71d34",
        "0xe5e14487b78f85faa6e1808e89246cf57dd34831548ff2e6097380d98db2504a",
        "0x6864841F1cD70349F23126982C140676268612F9"
      ],
      "transaction": {
        "from": "0x869140c91edf43214a3ecedeaf777cc7107ad71a",
        "to": "0x1d3c6cf6737921c798f07cd6469a72f173166657",
        "gas": "0x11a5d",
        "value": "0x0",
        "input": "0x06ab5923a097f6721ce401e757d1223a763fef49b8b5f90bb18567ddb86fd205dff71d34e5e14487b78f85faa6e1808e89246cf57dd34831548ff2e6097380d98db2504a0000000000000000000000006864841f1cd70349f23126982c140676268612f9",
        "nonce": "0x11",
        "chainId": "0x14a34"
      },
      "additionalContracts": [],
      "isFixedGasLimit": false
    }
  ],
  "receipts": [
    {
      "status": "0x1",
      "cumulativeGasUsed": "0xc432f",
      "logs": [],
      "logsBloom": "0x00000000000000000000000000000000000000000000000000000000000000000000000000000000000000000000000000000000000000000000000000000000000000000000000000000000000000000000000000000000000000000000000000000000000000000000000000000000000000000000000000000000000000000000000000000000000000000000000000000000000000000000000000000000000000000000000000000000000000000000000000000000000000000000000000000000000000000000000000000000000000000000000000000000000000000000000000000000000000000000000000000000000000000000000000000000",
      "type": "0x2",
      "transactionHash": "0xc8f015b64e11d06f594bb1623b0d4f0cd6b429ae1232a226a49d7aafeb83dd6c",
      "transactionIndex": "0x4",
      "blockHash": "0xf955132b45203378601e0b32da7b95bfbfdef9701cb10796c86e68981ec41a99",
      "blockNumber": "0xa9efae",
      "gasUsed": "0x1c6ab",
      "effectiveGasPrice": "0xf4372",
      "from": "0x869140c91edf43214a3ecedeaf777cc7107ad71a",
      "to": "0x4e59b44847b379578588920ca78fbf26c0b4956c",
      "contractAddress": null,
      "l1BaseFeeScalar": "0x44d",
      "l1BlobBaseFee": "0x1",
      "l1BlobBaseFeeScalar": "0xa118b",
      "l1Fee": "0xe8f6bff46",
      "l1GasPrice": "0x2a5fc75b0",
      "l1GasUsed": "0x1381"
    },
    {
      "status": "0x1",
      "cumulativeGasUsed": "0x180910",
      "logs": [
        {
          "address": "0x6864841f1cd70349f23126982c140676268612f9",
          "topics": [
            "0x8be0079c531659141344cd1fd0a4f28419497f9722a3daafe3b4186f6b6457e0",
            "0x0000000000000000000000000000000000000000000000000000000000000000",
            "0x000000000000000000000000869140c91edf43214a3ecedeaf777cc7107ad71a"
          ],
          "data": "0x",
          "blockHash": "0xf955132b45203378601e0b32da7b95bfbfdef9701cb10796c86e68981ec41a99",
          "blockNumber": "0xa9efae",
          "transactionHash": "0xa1c2f9e18b20c6b65ba6f25a6fdaf9c2753d88c3dd491c1df4f05270cca597d9",
          "transactionIndex": "0x5",
          "logIndex": "0xb",
          "removed": false
        }
      ],
      "logsBloom": "0x00000000000000000000000000000000000000000000000000800008000000000000000000000000000000000000000000000000000000000000000000001000000000000000000000000000000000000001000000000000000000000000000000000000020000000000000000000800000000000000000000000000000000400000000000200000000000000000000000000000000000000010000000000800000000000000000000000000000000000000000000000000000000000000000000000000000000000000000000000000000000000000000000000000000020000000000000000000000000000000000000000000000000002000000000000000",
      "type": "0x2",
      "transactionHash": "0xa1c2f9e18b20c6b65ba6f25a6fdaf9c2753d88c3dd491c1df4f05270cca597d9",
      "transactionIndex": "0x5",
      "blockHash": "0xf955132b45203378601e0b32da7b95bfbfdef9701cb10796c86e68981ec41a99",
      "blockNumber": "0xa9efae",
      "gasUsed": "0xbc5e1",
      "effectiveGasPrice": "0xf4372",
      "from": "0x869140c91edf43214a3ecedeaf777cc7107ad71a",
      "to": null,
      "contractAddress": "0x6864841f1cd70349f23126982c140676268612f9",
      "l1BaseFeeScalar": "0x44d",
      "l1BlobBaseFee": "0x1",
      "l1BlobBaseFeeScalar": "0xa118b",
      "l1Fee": "0x61af85e1ed",
      "l1GasPrice": "0x2a5fc75b0",
      "l1GasUsed": "0x82dd"
    },
    {
      "status": "0x1",
      "cumulativeGasUsed": "0x18c896",
      "logs": [
        {
          "address": "0x1d3c6cf6737921c798f07cd6469a72f173166657",
          "topics": [
            "0xce0457fe73731f824cc272376169235128c118b49d344817417c6d108d155e82",
            "0x0000000000000000000000000000000000000000000000000000000000000000",
            "0xdec08c9dbbdd0890e300eb5062089b2d4b1c40e3673bbccb5423f7b37dcf9a9c"
          ],
          "data": "0x000000000000000000000000869140c91edf43214a3ecedeaf777cc7107ad71a",
          "blockHash": "0xf955132b45203378601e0b32da7b95bfbfdef9701cb10796c86e68981ec41a99",
          "blockNumber": "0xa9efae",
          "transactionHash": "0xad1ead723232678160e2d0963b5a798160cd9b30ef858b3c2d1da9f11383c02b",
          "transactionIndex": "0x6",
          "logIndex": "0xc",
          "removed": false
        }
      ],
      "logsBloom": "0x00000000000000000000000000000000000000000000000000000000000000400000000000000000000000000000000000000000000010000000000000000000000000040000000000000000000000000000000000000000000000000000000000000000020000000000000000000800000000000000000000000000000000000000000000000002100000000000000000000000000000000000000000000000000000000000000000800000000000000000000000000000000000040000000000000000000000000000000000004000000000000000000000000000000020000000000000000000000000000000000000000000000000000000000000000400",
      "type": "0x2",
      "transactionHash": "0xad1ead723232678160e2d0963b5a798160cd9b30ef858b3c2d1da9f11383c02b",
      "transactionIndex": "0x6",
      "blockHash": "0xf955132b45203378601e0b32da7b95bfbfdef9701cb10796c86e68981ec41a99",
      "blockNumber": "0xa9efae",
      "gasUsed": "0xbf86",
      "effectiveGasPrice": "0xf4372",
      "from": "0x869140c91edf43214a3ecedeaf777cc7107ad71a",
      "to": "0x1d3c6cf6737921c798f07cd6469a72f173166657",
      "contractAddress": null,
      "l1BaseFeeScalar": "0x44d",
      "l1BlobBaseFee": "0x1",
      "l1BlobBaseFeeScalar": "0xa118b",
      "l1Fee": "0x513b1281e",
      "l1GasPrice": "0x2a5fc75b0",
      "l1GasUsed": "0x6cd"
    },
    {
      "status": "0x1",
      "cumulativeGasUsed": "0x1989a8",
      "logs": [
        {
          "address": "0x1d3c6cf6737921c798f07cd6469a72f173166657",
          "topics": [
            "0xce0457fe73731f824cc272376169235128c118b49d344817417c6d108d155e82",
            "0xa097f6721ce401e757d1223a763fef49b8b5f90bb18567ddb86fd205dff71d34",
            "0xe5e14487b78f85faa6e1808e89246cf57dd34831548ff2e6097380d98db2504a"
          ],
          "data": "0x0000000000000000000000006864841f1cd70349f23126982c140676268612f9",
          "blockHash": "0xf955132b45203378601e0b32da7b95bfbfdef9701cb10796c86e68981ec41a99",
          "blockNumber": "0xa9efae",
          "transactionHash": "0x5dc728dc25a7f9257aa122880400b9760fbf61f115fa49b3b9c98d9c6cb8fec7",
          "transactionIndex": "0x7",
          "logIndex": "0xd",
          "removed": false
        }
      ],
      "logsBloom": "0x00000000000000000000000000000000000000000000000000800000000000000000000000000000000000000000000000000000000010000000000000000000000000040000000000000000000000000000000000000000000000000000000000000000000800000000000000000000000000000001000000000000000000000000000000000000100000000000000000000000000000000000000000000000000000000000000000800000000000000000000000000000000000040000000000000000000000000000000000004000001000000000000000000000000000000000000000000040000000000000000000000000000000000000000010000000",
      "type": "0x2",
      "transactionHash": "0x5dc728dc25a7f9257aa122880400b9760fbf61f115fa49b3b9c98d9c6cb8fec7",
      "transactionIndex": "0x7",
      "blockHash": "0xf955132b45203378601e0b32da7b95bfbfdef9701cb10796c86e68981ec41a99",
      "blockNumber": "0xa9efae",
      "gasUsed": "0xc112",
      "effectiveGasPrice": "0xf4372",
      "from": "0x869140c91edf43214a3ecedeaf777cc7107ad71a",
      "to": "0x1d3c6cf6737921c798f07cd6469a72f173166657",
      "contractAddress": null,
      "l1BaseFeeScalar": "0x44d",
      "l1BlobBaseFee": "0x1",
      "l1BlobBaseFeeScalar": "0xa118b",
      "l1Fee": "0x63f69689b",
      "l1GasPrice": "0x2a5fc75b0",
      "l1GasUsed": "0x85e"
    }
  ],
  "libraries": [
    "src/lib/Sha3.sol:Sha3:0x57FE250Fd1C899e74490A95a2Ad72Ca1bAA7E927"
  ],
  "pending": [],
  "returns": {},
  "timestamp": 1718042177,
  "chain": 84532,
  "commit": "62074a4"
}