{
  "transactions": [
    {
      "hash": "0x2750aa889d411f256030ce8d1c6b57a5983c611c8b391d62af72b1682808a808",
      "transactionType": "CREATE",
      "contractName": "ReverseRegistrar",
      "contractAddress": "0xfb209b5a51dd0ee3e8d35e7d488ec73bd863553d",
      "function": null,
      "arguments": [
        "0x1d3C6Cf6737921c798f07Cd6469A72f173166657",
        "0xa06fBB1F900b5015bB7C23C138F4Bd440422208b",
        "0x869140c91eDF43214a3EcEdEAF777cc7107aD71a"
      ],
      "transaction": {
        "from": "0x869140c91edf43214a3ecedeaf777cc7107ad71a",
        "gas": "0x109544",
        "value": "0x0",
        "input": "0x60a060405234801561001057600080fd5b50604051610e6e380380610e6e83398101604081905261002f916100b8565b61003881610066565b506001600160a01b039081166000908152602081905260409020805460ff1916600117905516608052610105565b6001600160a01b0316638b78c6d8198190558060007f8be0079c531659141344cd1fd0a4f28419497f9722a3daafe3b4186f6b6457e08180a35b50565b6001600160a01b03811681146100a057600080fd5b6000806000606084860312156100cd57600080fd5b83516100d8816100a3565b60208501519093506100e9816100a3565b60408501519092506100fa816100a3565b809150509250925092565b608051610d4061012e600039600081816101ed015281816104ff01526106980152610d406000f3fe6080604052600436106101095760003560e01c8063828eab0e11610095578063c66485b211610064578063c66485b2146102a0578063da8c229e146102c0578063f04e283e14610300578063f2fde38b14610313578063fee81cf41461032657600080fd5b8063828eab0e146102275780638da5cb5b14610247578063bffbe61c14610260578063c47f00271461028057600080fd5b806354d1f13d116100dc57806354d1f13d1461018b5780636566963114610193578063715018a6146101b35780637a806d6b146101bb5780637b103999146101db57600080fd5b80630f5a54661461010e5780630f6bdf41146101415780631e83409a146101635780632569296214610183575b600080fd5b34801561011a57600080fd5b5061012e610129366004610a47565b610359565b6040519081526020015b60405180910390f35b34801561014d57600080fd5b5061016161015c366004610a8e565b61036d565b005b34801561016f57600080fd5b5061012e61017e366004610abc565b6103f9565b61016161041b565b61016161046b565b34801561019f57600080fd5b5061012e6101ae366004610ad9565b6104a7565b6101616106ff565b3480156101c757600080fd5b5061012e6101d6366004610bc7565b610713565b3480156101e757600080fd5b5061020f7f000000000000000000000000000000000000000000000000000000000000000081565b6040516001600160a01b039091168152602001610138565b34801561023357600080fd5b5060015461020f906001600160a01b031681565b34801561025357600080fd5b50638b78c6d8195461020f565b34801561026c57600080fd5b5061012e61027b366004610abc565b61078e565b34801561028c57600080fd5b5061012e61029b366004610c3c565b6107e9565b3480156102ac57600080fd5b506101616102bb366004610abc565b610806565b3480156102cc57600080fd5b506102f06102db366004610abc565b60006020819052908152604090205460ff1681565b6040519015158152602001610138565b61016161030e366004610abc565b61087f565b610161610321366004610abc565b6108bf565b34801561033257600080fd5b5061012e610341366004610abc565b63389a75e1600c908152600091909152602090205490565b60006103663384846104a7565b9392505050565b6103756108e6565b6001600160a01b03821661039c5760405163ddbadd5f60e01b815260040160405180910390fd5b6001600160a01b03821660008181526020818152604091829020805460ff191685151590811790915591519182527ff9029b781a69f4a546fcd723a108cc36592b8fbdecf665d7db4275c9d1de4892910160405180910390a25050565b60015460009061041590339084906001600160a01b03166104a7565b92915050565b60006202a30067ffffffffffffffff164201905063389a75e1600c5233600052806020600c2055337fdbf36a107da19e49527a7176a1babf963b4b0ff8cde35ee35d6cd8f1f9ac7e1d600080a250565b63389a75e1600c523360005260006020600c2055337ffa7b8eab7da67f412cc9575ed43464468f9bfbae89d1675917346ca6d8fe3c92600080a2565b6000836001600160a01b03811633148015906104d357503360009081526020819052604090205460ff16155b801561056c575060405163e985e9c560e01b81526001600160a01b0382811660048301523360248301527f0000000000000000000000000000000000000000000000000000000000000000169063e985e9c590604401602060405180830381865afa158015610546573d6000803e3d6000fd5b505050506040513d601f19601f8201168201806040525081019061056a9190610c79565b155b801561057e575061057c81610901565b155b156105b15760405163c55ddc9760e01b81526001600160a01b038216600482015233602482015260440160405180910390fd5b60006105bc8661098e565b604080517f91d1777781884d03a6757a803996e38de2a42967fb37eeaca72729271025a9e2602080830191909152818301849052825180830384018152606090920192839052815191012091925081906001600160a01b038916907f6ada868dd3058cf77a48a74489fd7963688e5464b2b0fa957ace976243270e9290600090a36040516305ef2c7f60e41b81527f91d1777781884d03a6757a803996e38de2a42967fb37eeaca72729271025a9e26004820152602481018390526001600160a01b0387811660448301528681166064830152600060848301527f00000000000000000000000000000000000000000000000000000000000000001690635ef2c7f09060a401600060405180830381600087803b1580156106dc57600080fd5b505af11580156106f0573d6000803e3d6000fd5b50929998505050505050505050565b6107076108e6565b61071160006109f4565b565b6000806107218686866104a7565b604051637737221360e01b81529091506001600160a01b038516906377372213906107529084908790600401610c96565b600060405180830381600087803b15801561076c57600080fd5b505af1158015610780573d6000803e3d6000fd5b509298975050505050505050565b60007f91d1777781884d03a6757a803996e38de2a42967fb37eeaca72729271025a9e26107ba8361098e565b604080516020810193909352820152606001604051602081830303815290604052805190602001209050919050565b60015460009061041590339081906001600160a01b031685610713565b61080e6108e6565b6001600160a01b0381166108355760405163ddbadd5f60e01b815260040160405180910390fd5b600180546001600160a01b0319166001600160a01b0383169081179091556040517feae17a84d9eb83d8c8eb317f9e7d64857bc363fa51674d996c023f4340c577cf90600090a250565b6108876108e6565b63389a75e1600c52806000526020600c2080544211156108af57636f5e88186000526004601cfd5b600090556108bc816109f4565b50565b6108c76108e6565b8060601b6108dd57637448fbae6000526004601cfd5b6108bc816109f4565b638b78c6d819543314610711576382b429006000526004601cfd5b6000813b63ffffffff1661091757506000919050565b816001600160a01b0316638da5cb5b6040518163ffffffff1660e01b8152600401602060405180830381865afa925050508015610971575060408051601f3d908101601f1916820190925261096e91810190610ced565b60015b61097d57506000919050565b6001600160a01b0316331492915050565b600060285b80156109e857600019016f181899199a1a9b1b9c1cb0b131b232b360811b600f84161a8153601090920491600019016f181899199a1a9b1b9c1cb0b131b232b360811b600f84161a8153601083049250610993565b50506028600020919050565b638b78c6d81980546001600160a01b039092169182907f8be0079c531659141344cd1fd0a4f28419497f9722a3daafe3b4186f6b6457e0600080a355565b6001600160a01b03811681146108bc57600080fd5b60008060408385031215610a5a57600080fd5b8235610a6581610a32565b91506020830135610a7581610a32565b809150509250929050565b80151581146108bc57600080fd5b60008060408385031215610aa157600080fd5b8235610aac81610a32565b91506020830135610a7581610a80565b600060208284031215610ace57600080fd5b813561036681610a32565b600080600060608486031215610aee57600080fd5b8335610af981610a32565b92506020840135610b0981610a32565b91506040840135610b1981610a32565b809150509250925092565b634e487b7160e01b600052604160045260246000fd5b600082601f830112610b4b57600080fd5b813567ffffffffffffffff80821115610b6657610b66610b24565b604051601f8301601f19908116603f01168101908282118183101715610b8e57610b8e610b24565b81604052838152866020858801011115610ba757600080fd5b836020870160208301376000602085830101528094505050505092915050565b60008060008060808587031215610bdd57600080fd5b8435610be881610a32565b93506020850135610bf881610a32565b92506040850135610c0881610a32565b9150606085013567ffffffffffffffff811115610c2457600080fd5b610c3087828801610b3a565b91505092959194509250565b600060208284031215610c4e57600080fd5b813567ffffffffffffffff811115610c6557600080fd5b610c7184828501610b3a565b949350505050565b600060208284031215610c8b57600080fd5b815161036681610a80565b8281526000602060406020840152835180604085015260005b81811015610ccb57858101830151858201606001528201610caf565b506000606082860101526060601f19601f830116850101925050509392505050565b600060208284031215610cff57600080fd5b815161036681610a3256fea2646970667358221220dd9fecf952f00c7140672c536540b24c81c33cec67fc7e921935cd8441213e2764736f6c634300081700330000000000000000000000001d3c6cf6737921c798f07cd6469a72f173166657000000000000000000000000a06fbb1f900b5015bb7c23c138f4bd440422208b000000000000000000000000869140c91edf43214a3ecedeaf777cc7107ad71a",
        "nonce": "0x3e",
        "chainId": "0x14a34"
      },
      "additionalContracts": [],
      "isFixedGasLimit": false
    },
    {
      "hash": "0x6b4ecb1f1a774d548ca76b57069377b1a0070cc87966c7bc4094688551bbba3d",
      "transactionType": "CALL",
      "contractName": "Registry",
      "contractAddress": "0x1d3c6cf6737921c798f07cd6469a72f173166657",
      "function": "setSubnodeOwner(bytes32,bytes32,address)",
      "arguments": [
        "0x0000000000000000000000000000000000000000000000000000000000000000",
        "0xdec08c9dbbdd0890e300eb5062089b2d4b1c40e3673bbccb5423f7b37dcf9a9c",
        "0x869140c91eDF43214a3EcEdEAF777cc7107aD71a"
      ],
      "transaction": {
        "from": "0x869140c91edf43214a3ecedeaf777cc7107ad71a",
        "to": "0x1d3c6cf6737921c798f07cd6469a72f173166657",
        "gas": "0xa66a",
        "value": "0x0",
        "input": "0x06ab59230000000000000000000000000000000000000000000000000000000000000000dec08c9dbbdd0890e300eb5062089b2d4b1c40e3673bbccb5423f7b37dcf9a9c000000000000000000000000869140c91edf43214a3ecedeaf777cc7107ad71a",
        "nonce": "0x3f",
        "chainId": "0x14a34"
      },
      "additionalContracts": [],
      "isFixedGasLimit": false
    },
    {
      "hash": "0x584787c8eff0cd4ce8e403fe11296b7e58bdab65a52780ffbbc685b29afff64a",
      "transactionType": "CALL",
      "contractName": "Registry",
      "contractAddress": "0x1d3c6cf6737921c798f07cd6469a72f173166657",
      "function": "setSubnodeOwner(bytes32,bytes32,address)",
      "arguments": [
        "0xa097f6721ce401e757d1223a763fef49b8b5f90bb18567ddb86fd205dff71d34",
        "0xe5e14487b78f85faa6e1808e89246cf57dd34831548ff2e6097380d98db2504a",
        "0xFB209B5A51Dd0eE3E8d35e7d488Ec73bD863553d"
      ],
      "transaction": {
        "from": "0x869140c91edf43214a3ecedeaf777cc7107ad71a",
        "to": "0x1d3c6cf6737921c798f07cd6469a72f173166657",
        "gas": "0xae69",
        "value": "0x0",
        "input": "0x06ab5923a097f6721ce401e757d1223a763fef49b8b5f90bb18567ddb86fd205dff71d34e5e14487b78f85faa6e1808e89246cf57dd34831548ff2e6097380d98db2504a000000000000000000000000fb209b5a51dd0ee3e8d35e7d488ec73bd863553d",
        "nonce": "0x40",
        "chainId": "0x14a34"
      },
      "additionalContracts": [],
      "isFixedGasLimit": false
    }
  ],
  "receipts": [
    {
      "status": "0x1",
      "cumulativeGasUsed": "0xf67ec",
      "logs": [
        {
          "address": "0xfb209b5a51dd0ee3e8d35e7d488ec73bd863553d",
          "topics": [
            "0x8be0079c531659141344cd1fd0a4f28419497f9722a3daafe3b4186f6b6457e0",
            "0x0000000000000000000000000000000000000000000000000000000000000000",
            "0x000000000000000000000000869140c91edf43214a3ecedeaf777cc7107ad71a"
          ],
          "data": "0x",
          "blockHash": "0x668666a03f4e67ba8ef838e1b199a0ad42a81e69293067c2428a0eb682c501c8",
          "blockNumber": "0xb3fe27",
          "transactionHash": "0x2750aa889d411f256030ce8d1c6b57a5983c611c8b391d62af72b1682808a808",
          "transactionIndex": "0x7",
          "logIndex": "0x0",
          "removed": false
        }
      ],
      "logsBloom": "0x00000000000000000000000000000000000000000000000000800008000000000000000000000000000000000000000000000000000000000000000008000000000000000000000000000000000000000001000000000000000000000000000000000000020000000000000000000800000000000000000000000000000000400000000000200000000000000000000000000000000000000000000000000000000000000000000000000000000000000000000000000000200000000000000000000000000000000000000000000000000000020000000000000000000020000000000000000000000000000000000000000000000000002000000000000000",
      "type": "0x2",
      "transactionHash": "0x2750aa889d411f256030ce8d1c6b57a5983c611c8b391d62af72b1682808a808",
      "transactionIndex": "0x7",
      "blockHash": "0x668666a03f4e67ba8ef838e1b199a0ad42a81e69293067c2428a0eb682c501c8",
      "blockNumber": "0xb3fe27",
      "gasUsed": "0xcc285",
      "effectiveGasPrice": "0x10ca06",
      "from": "0x869140c91edf43214a3ecedeaf777cc7107ad71a",
      "to": null,
      "contractAddress": "0xfb209b5a51dd0ee3e8d35e7d488ec73bd863553d",
      "l1BaseFeeScalar": "0x44d",
      "l1BlobBaseFee": "0x1",
      "l1BlobBaseFeeScalar": "0xa118b",
      "l1Fee": "0x44484c9da5",
      "l1GasPrice": "0x1aee0f6a6",
      "l1GasUsed": "0x8fef"
    },
    {
      "status": "0x1",
      "cumulativeGasUsed": "0xfd9b6",
      "logs": [
        {
          "address": "0x1d3c6cf6737921c798f07cd6469a72f173166657",
          "topics": [
            "0xce0457fe73731f824cc272376169235128c118b49d344817417c6d108d155e82",
            "0x0000000000000000000000000000000000000000000000000000000000000000",
            "0xdec08c9dbbdd0890e300eb5062089b2d4b1c40e3673bbccb5423f7b37dcf9a9c"
          ],
          "data": "0x000000000000000000000000869140c91edf43214a3ecedeaf777cc7107ad71a",
          "blockHash": "0x668666a03f4e67ba8ef838e1b199a0ad42a81e69293067c2428a0eb682c501c8",
          "blockNumber": "0xb3fe27",
          "transactionHash": "0x6b4ecb1f1a774d548ca76b57069377b1a0070cc87966c7bc4094688551bbba3d",
          "transactionIndex": "0x8",
          "logIndex": "0x1",
          "removed": false
        }
      ],
      "logsBloom": "0x00000000000000000000000000000000000000000000000000000000000000400000000000000000000000000000000000000000000010000000000000000000000000040000000000000000000000000000000000000000000000000000000000000000020000000000000000000800000000000000000000000000000000000000000000000002100000000000000000000000000000000000000000000000000000000000000000800000000000000000000000000000000000040000000000000000000000000000000000004000000000000000000000000000000020000000000000000000000000000000000000000000000000000000000000000400",
      "type": "0x2",
      "transactionHash": "0x6b4ecb1f1a774d548ca76b57069377b1a0070cc87966c7bc4094688551bbba3d",
      "transactionIndex": "0x8",
      "blockHash": "0x668666a03f4e67ba8ef838e1b199a0ad42a81e69293067c2428a0eb682c501c8",
      "blockNumber": "0xb3fe27",
      "gasUsed": "0x71ca",
      "effectiveGasPrice": "0x10ca06",
      "from": "0x869140c91edf43214a3ecedeaf777cc7107ad71a",
      "to": "0x1d3c6cf6737921c798f07cd6469a72f173166657",
      "contractAddress": null,
      "l1BaseFeeScalar": "0x44d",
      "l1BlobBaseFee": "0x1",
      "l1BlobBaseFeeScalar": "0xa118b",
      "l1Fee": "0x333a3f842",
      "l1GasPrice": "0x1aee0f6a6",
      "l1GasUsed": "0x6bf"
    },
    {
      "status": "0x1",
      "cumulativeGasUsed": "0x1057fc",
      "logs": [
        {
          "address": "0x1d3c6cf6737921c798f07cd6469a72f173166657",
          "topics": [
            "0xce0457fe73731f824cc272376169235128c118b49d344817417c6d108d155e82",
            "0xa097f6721ce401e757d1223a763fef49b8b5f90bb18567ddb86fd205dff71d34",
            "0xe5e14487b78f85faa6e1808e89246cf57dd34831548ff2e6097380d98db2504a"
          ],
          "data": "0x000000000000000000000000fb209b5a51dd0ee3e8d35e7d488ec73bd863553d",
          "blockHash": "0x668666a03f4e67ba8ef838e1b199a0ad42a81e69293067c2428a0eb682c501c8",
          "blockNumber": "0xb3fe27",
          "transactionHash": "0x584787c8eff0cd4ce8e403fe11296b7e58bdab65a52780ffbbc685b29afff64a",
          "transactionIndex": "0x9",
          "logIndex": "0x2",
          "removed": false
        }
      ],
      "logsBloom": "0x00000000000000000000000000000000000000000000000000800000000000000000000000000000000000000000000000000000000010000000000000000000000000040000000000000000000000000000000000000000000000000000000000000000000800000000000000000000000000000001000000000000000000000000000000000000100000000000000000000000000000000000000000000000000000000000000000800000000000000000000000000000000000040000000000000000000000000000000000004000001000000000000000000000000000000000000000000040000000000000000000000000000000000000000010000000",
      "type": "0x2",
      "transactionHash": "0x584787c8eff0cd4ce8e403fe11296b7e58bdab65a52780ffbbc685b29afff64a",
      "transactionIndex": "0x9",
      "blockHash": "0x668666a03f4e67ba8ef838e1b199a0ad42a81e69293067c2428a0eb682c501c8",
      "blockNumber": "0xb3fe27",
      "gasUsed": "0x7e46",
      "effectiveGasPrice": "0x10ca06",
      "from": "0x869140c91edf43214a3ecedeaf777cc7107ad71a",
      "to": "0x1d3c6cf6737921c798f07cd6469a72f173166657",
      "contractAddress": null,
      "l1BaseFeeScalar": "0x44d",
      "l1BlobBaseFee": "0x1",
      "l1BlobBaseFeeScalar": "0xa118b",
      "l1Fee": "0x3f21edf9d",
      "l1GasPrice": "0x1aee0f6a6",
      "l1GasUsed": "0x851"
    }
  ],
  "libraries": [],
  "pending": [],
  "returns": {},
  "timestamp": 1719360307,
  "chain": 84532,
  "commit": "1f03823"
}